:020000040800F2
:1000000000A00120A10100088D6A0008095D000818
:10001000D1610008ED0C00082592000800000000E6
:10002000000000000000000000000000E98A000855
:10003000EF0C000800000000FF6B0008EB8A0008CE
:10004000BB010008BB010008BB010008BB010008A0
:10005000BB010008BB010008BB010008BB01000890
:10006000BB010008BB010008BB010008BB01000880
:10007000BB010008BB010008BB010008BB01000870
:10008000BB010008BB010008BB010008BB01000860
:10009000BB010008BB010008BB010008BB01000850
:1000A000BB010008BB010008BB010008BB01000840
:1000B000BB010008B58B0008BB010008BB010008AC
:1000C000BB010008BB010008BB010008BB01000820
:1000D000BB01000849910008BB010008BB010008F2
:1000E000BB010008BB010008BB010008BB01000800
:1000F000BB010008BB010008BB010008BB010008F0
:10010000BB010008BB010008BB010008BB010008DF
:10011000BB010008BB010008BB010008BB010008CF
:10012000BB010008BB010008BB010008BB010008BF
:10013000BB010008AD100008BB010008BB010008AE
:10014000BB010008BB010008BB010008BB0100089F
:10015000BB010008BB010008BB010008BB0100088F
:10016000BB010008BB010008BB010008BB0100087F
:10017000BB010008BB010008BB0100080000000033
:10018000BB010008BB010008DFF810D000F036FB0F
:100190000048004791BD0008AFF3008000A0012097
:1001A0000648804706480047FEE7FEE7FEE7FEE711
:1001B000FEE7FEE7FEE7FEE7FEE7FEE7A58B0008A9
:1001C000890100082DE9F05F0546002092469B4614
:1001D00088460646814640241BE02846414647465D
:1001E000224600F0BCF853465A46C01A914110D33B
:1001F00011461846224600F0A3F82D1A67EB0108B5
:100200004F4622460120002100F09AF817EB000922
:100210004E41201EA4F10104DFDC484631462A4647
:100220004346BDE8F09F40EA01039B0703D009E085
:1002300008C9121F08C0042AFAD203E011F8013BD2
:1002400000F8013B521EF9D27047D2B201E000F82B
:10025000012B491EFBD270470022F6E710B513466A
:100260000A4604461946FFF7F0FF204610BD421C1F
:1002700010F8011B0029FBD1801A704710B500222D
:1002800000E0521C835C8C5CA34201D1002BF8D1AE
:10029000D8B2E1B2401A10BD30B505460020034681
:1002A00000E05B1C934205D2EC5CC85C201A01D1D3
:1002B000002CF6D130BD00F0004230F000400AD0F2
:1002C000C10D01F56071C0F3160042EA0151C20888
:1002D00040071143704700200146704701F000437A
:1002E00030B421F0004150EA010206D00A0DA2F517
:1002F0006072C1F31301002A02DC30BC0020704799
:10030000440F44EAC104C100E01830BC00EBC25005
:1003100000F084B830B50B460146002020220124AD
:1003200009E021FA02F59D4205D303FA02F5491BC3
:1003300004FA02F52844151EA2F10102F1DC30BDD9
:10034000202A04DB203A00FA02F100207047914095
:10035000C2F1200320FA03F3194390407047202A8A
:1003600004DB203A21FA02F00021704721FA02F35F
:10037000D040C2F120029140084319467047000066
:100380000FB4002300B589B00CA900910B996FF050
:100390000042CB601E4B06931E4B07930423CDE90E
:1003A00001321D4A089202466B46002000F0E4FA32
:1003B00009B05DF814FB70B586B006464FF0FF300B
:1003C0000091CDE90101002015460C46049032460B
:1003D000694604A8FFF7D4FF02460498211825B106
:1003E00008B1084600E020462860049800280DD097
:1003F000002A02DD0098884208D0081B0094CDE94D
:1004000001043246694604A8FFF7BAFF06B070BD82
:10041000B10B0008CF0B0008450800080029A8BF51
:100420007047401C490008BF20F00100704710B41D
:10043000B0FA80FC00FA0CF050EA010404BF10BCD2
:10044000704749B1CCF1200421FA04F411FA0CF1FF
:1004500018BF012121430843A3EB0C01CB1D4FEA38
:1004600000614FEA102042BF002010BC704700EB33
:10047000C35010440029A4BF10BC7047401C490061
:1004800008BF20F0010010BC70472DE9FE4F8046E8
:1004900081EA0300C00F0C46009021F0004123F0D8
:1004A0000045B8EB0200A94105D2404621469046DE
:1004B0001C460B46024623F00040104347D0270D50
:1004C000C7F30A00C3F30A510290401A0190402872
:1004D0006BDAC3F3130040F4801B0098924620B1FE
:1004E0000023D2EB030A63EB0B0B01985946C0F1D2
:1004F00040025046FFF724FF06460D465046594637
:10050000019A00F08DF910EB08006141002487EAA0
:10051000115284EAE7731A4340D0009A62B3019AF9
:10052000012A4FEA075215DC001B61EB02014FF074
:10053000004202EA0752CDE90042001C41F5801159
:1005400032462B4600F063FB03B0BDE8F08F404617
:100550002146F9E7001B61EB0201001C41F5801305
:1005600000185B412018A2F5001747EB030140EA91
:10057000D570B6196D4111E06D084FEA360645EAAF
:10058000C0754FEA0752001B61EB0201001C41F5E8
:10059000801149084FEA30000019514132462B467C
:1005A00003B0BDE8F04F00F023BB009801224000EB
:1005B0000023D0EB020263EBE073009821464FEA80
:1005C000E074B8EB000061EB0401E9E783F000435D
:1005D0005BE781F0004158E72DE9FE4F81EA030413
:1005E00004F0004421F0004100944FF0000B23F090
:1005F000004350EA01045ED052EA03045BD0C3F327
:100600000A54C1F30A552C44A4F2F3340194A0FB1C
:100610000254C1F3130141F48011C3F3130343F4F3
:10062000801301FB024400FB034E840A970A44EA4C
:10063000815447EA8357A4FB076802958D0A05FB9E
:1006400007854FEA932C04FB0C542705029D4FEAC3
:10065000065847EA1637B5EB08056EEB070C870E10
:10066000920E47EA811742EA8312A7FB0201B6EB1A
:100670000B0164EB00042B0D43EA0C335E1844EBD2
:100680001C50DA465146E7FB0201C5F313044FEA5A
:100690000B3343EA14534FEA0432019C43EA060346
:1006A000A4F10C040294009CCDE900B400F0AFFA70
:1006B00003B0BDE8F08F00200146F9E72DE9F04DC9
:1006C00081EA030404F0004B21F0004514464FF08A
:1006D000000A23F0004150EA050220D054EA01024A
:1006E0001DD0C5F30A570246C5F31303C1F3130027
:1006F000C1F30A5640F4801543F48013A7EB0608B3
:10070000101BD64608F2FD3873EB050002D308F142
:10071000010801E092185B41B8F1000F03DA0020F4
:100720000146BDE8F08D00204FF480110646844656
:100730000EE0171B73EB050705D3121B63EB0503D4
:1007400006434CEA010C49084FEA300092185B411D
:1007500050EA0107EDD152EA030012D082EA040008
:1007600083EA0501084305D0101BAB4106D20122E4
:10077000002306E000224FF0004302E06FF0010288
:1007800053101AEB06004CEB085110EB0A0041EB3A
:100790000B01BDE8F04D00F02BBAC1F30A52C1F3D2
:1007A000130140F2FF3341F480119A4202DA002033
:1007B0000146704740F233439A42A2F2334202DCD0
:1007C0005242FFF7CCBDFFF7BBBD000030B5041EA1
:1007D00071F1000404DB4FF00044404264EB01017E
:1007E000141E73F1000405DB1C464FF00043524217
:1007F00063EB0403994208BF904230BD064C074D9D
:1008000006E0E06840F0010394E8070098471034E0
:10081000AC42F6D3FFF7BCFCCCC60008FCC600080F
:10082000202A06DBCB17203A41FA02F043EAE073B4
:1008300006E041FA02F3D040C2F1200291400843A1
:1008400019467047C0B24FF4F05100F02FBA0000C3
:100850002DE9FF4F087883B09946FF2805D0491C41
:100860002D2804D00024002008E000200BE0012403
:10087000F9E700EB800003EB4000491C0B78FF2BED
:10088000F7D104B1404200230293147819461D4663
:100890002D2C01D02B2C04D1521C2D2C13D0002434
:1008A0000294AA461478FF2C0FD00A25A3FB0578E2
:1008B00001FB05814FF0000C03FB0C11521CE319E6
:1008C0004AEB0101EEE70124EAE7814453EA010023
:1008D00002D019F5C87F06DA03980021C0E900119B
:1008E00007B0BDE8F08F0025AE4E2F46DFF8B88286
:1008F000184600F0EFF9CDE90001B9F1000002DA85
:10090000C9F1000400E004460023A74A1AEB030BD8
:1009100042EB045A12E0E00707D02A463346384635
:100920004146FFF759FE074688462A463346104699
:100930001946FFF751FE05460E466410002CEAD119
:10094000DDE90001B9F1000F5A46534606DAFFF718
:10095000B5FE3A464346FFF7B1FE05E0FFF73CFE21
:100960003A464346FFF738FE029A0AB181F0004149
:10097000039AC2E90001B3E72DE9FF4F1F468DB08E
:10098000D7E901464FF0FF382E2045464FF00009C9
:100990000B90B9696D1C0E988847396A8246884762
:1009A0000028F6D1BAF1FF3F0AD024F4D064002E1B
:1009B00011DDBAF12B0F08D0BAF12D0F0BD102E0E7
:1009C000404611B08DE744F48064B9696D1C0E98FF
:1009D00088478246761E6946600501D52D2000E0D5
:1009E0002B208DF8000001F1010B0DF1200809E02A
:1009F000B9696D1C0E98884782460F9844F40074BC
:100A0000761E0560002E02DDBAF1300FF0D00B9992
:100A10008A453ED144F0800406E00F99681CA9F194
:100A2000010944F400740860B9696D1C761E0E98C3
:100A3000884782463028F0D02BE00B998A4505D1B3
:100A4000200603D444F08004761E18E0504608F0D7
:100A500035FD08B30DF11301761E44F400748B4587
:100A600008D2AAF130000BF8010B200607D5A9F136
:100A7000010003E0200602D409F101008146A0052F
:100A800002D50F99681C0860B9696D1C0E988847DB
:100A90008246002ED1DC53E0002E51DDBAF1650F05
:100AA00002D0BAF1450F4BD1A00549D5B9696D1CEB
:100AB00024F44074761E0E9888478246002E0CDD82
:100AC0002B2804D0BAF12D0F07D144F48074B969F2
:100AD0006D1C0E9888478246761EE00501D52D21B3
:100AE00000E02B2108F8011BCDF82C8021E00DF14E
:100AF0002901761E44F4007488450CD2AAF1300016
:100B000010F0FF0088F8000002D10B99884509D940
:100B100008F1010806E0E00501D5244801E042F2B1
:100B20000F708146B9696D1C0E98884782460F98F0
:100B30000560002E04DD504608F0C0FC0028D6D128
:100B4000F9690E988847FF208BF8000088F80000AC
:100B50000020069007904B466A4608A906A8FFF7B2
:100B600077FEA00502D46FF001002AE714F0240FED
:100B70000AD0E00714D1DDE906123868031D3B6096
:100B80000068C0E900120BE0DDE90601FFF7A6FBF3
:100B90000146E00704D13868021D3A600068016030
:100BA00028460EE7000014400000F03FF1D8FFFF98
:100BB000426842B1016811F8013B23B1521EC0E9FD
:100BC0000012184670470121C160881E70474268B4
:100BD0005AB1C368016843B983688B4205D0491E86
:100BE000521CC0E90012002070474FF0FF307047E0
:100BF00010B5141E73F1000408DA401C41F1000125
:100C000092185B411A4301D120F0010010BD2DE97B
:100C1000F04D92469B4611B1B1FA81F202E0B0FA72
:100C200080F220329046FFF78BFB04460F4640EAE5
:100C30000A0041EA0B0153465A46084313D01146B5
:100C400053EA010019D0C8F140025046FFF787FB74
:100C500005460E46504659464246FFF771FB08438B
:100C600005D0012004E020463946BDE8F08D002083
:100C7000054346EAE0762C4337430A986305E40AC5
:100C8000A0EB08000022FD0A44EA47540A3002D5CE
:100C900000200146E9E7010510196941DDE9084531
:100CA00000196941BDE8F04DA2E700007F2801D995
:100CB000002208E0064A02EB5002C007127800D179
:100CC000120902F00F020120904008407047000016
:100CD000C4C200080EB540F2334202920022CDE9B0
:100CE00000221346FFF793FF03B000BDFEE77047F5
:100CF00030B5A9B056A008F03FF956A008F03CF96D
:100D00005DA008F039F90020089044F6206008A999
:100D100002230022CDE900101146604809F0DDF9F8
:100D200085B29DF8200000909DF821302A465CA1F4
:100D300009A808F0A3FA09A808F01EF960A008F0B5
:100D40001BF96A4903C9CDE90601002421E000200E
:100D5000039044F6206003A9CDE9001006A830F8FE
:100D60001410022300224D4809F0CDF985B2BDF8D8
:100D70000C00009006A830F814202B465CA109A8AE
:100D800008F07CFA09A808F0F7F80A2003F024FC20
:100D9000641C042CDBDB61A008F0EEF841F20100DA
:100DA000059044F6206005A902231022CDE9001029
:100DB00000213A4809F086F985B22A4661A109A8BE
:100DC00008F05CFA09A808F0D7F80A2003F004FC40
:100DD0000020049044F6206004A902231022CDE9EB
:100DE000001041F201012D4809F08DF985B2BDF8DE
:100DF00010302A465EA109A808F040FA09A808F0B8
:100E0000BBF864A008F0B8F869486AA1D0F860257A
:100E100009A808F033FA09A808F0AEF8644869A1F7
:100E2000D0F8642509A808F029FA09A808F0A4F860
:100E30005F4868A1D0F8682509A808F01FFA09A83A
:100E400008F09AF868A008F097F829B030BD0000C3
:100E5000000000003D3D3D204574686572434154EB
:100E6000204672616D6520446961676E6F736973B6
:100E7000203D3D3D000000005465737420313A2050
:100E800042524420455343205479706520283078DD
:100E900030303030292E2E2E00000000941A012010
:100EA000202042524420574B433D25642C2044616E
:100EB00074613D30782530325825303258000000BA
:100EC0005465737420323A20465052442077697436
:100ED0006820646966666572656E74206164647218
:100EE00065737365732E2E2E0000000098C20008F3
:100EF00020204650524420616464723D3078253091
:100F000034583A20574B433D25642C204553435FCA
:100F1000547970653D3078253034580054657374C9
:100F200020333A20436F6E6669677572652073746B
:100F30006174696F6E20616464726573732E2E2E06
:100F40000000000020204150575220574B433D25C0
:100F500064202873686F756C642062652031206995
:100F600066207375636365737366756C2900000092
:100F7000202046505244207665726966793A20579F
:100F80004B433D25642C20416464723D307825300C
:100F9000345800005465737420343A20506F7274D2
:100FA00020737461746973746963732E2E2E00004C
:100FB000947A012020205458206572726F72733A1F
:100FC0002025640020205258206572726F72733A97
:100FD0002025640020205061636B657420636F7569
:100FE0006E743A20256400003D3D3D2044696167F0
:100FF0006E6F73697320436F6D706C657465203D0F
:101000003D3D0000F0B500231A464FF0004500BFFB
:10101000016903EB830401EBC4010A604A608A6042
:10102000CA600A620D604A62466946F480464E60B4
:101030004E6826F000464E6000EB8306032BB16439
:1010400005D22827066907EBC404344400E004698C
:10105000CC605B1C042BDBD3C26502668266C26671
:1010600082650169006800F58050C160F0BD38B547
:101070000446006800F58050816941F48011816167
:10108000206800F5805080690090012003F0A4FAE8
:101090002068009900F58050816138BD10B50120AD
:1010A00005F0F6FCC0F3800010BD0000014803F01D
:1010B000E3BA000034DB012070B5A4B001250024A0
:1010C00006468DF828408DF804501494A8038DF836
:1010D000564005908DF8105002948DF80E508DF802
:1010E0005440C0108DF811508DF81F408DF82040ED
:1010F00006908DF81E508DF80F4009948DF81C4015
:1011000012948DF84C408DF855406946304600F0F9
:1011100083F88DF881508DF880408DF88240280446
:101120001B908DF8685080011F908DF870508DF8DD
:10113000885040128DF871501E941D908DF8725099
:10114000239421948DF8895019A93046199400F000
:1011500003F824B070BD000070B50C460168054668
:1011600001F5805188692B4A1040227BEAB30022A6
:10117000637B920642EA4362637FBBB35FF0000386
:1011800042EA0352A37B42EA435263691A43237F34
:1011900042EAC312A37F42EA8312236A1A4394F8F5
:1011A000243042EA830202438A61286800F58050B5
:1011B0008669012003F010FA286800F580508661E6
:1011C000A169A06822790843216941EA4261084384
:1011D00094F8251040EAC110A16A40EA8100216814
:1011E000084340F40001286801E00FE010E000F53A
:1011F00080500160286800F580500468012003F0E9
:10120000EBF9286800F58050046070BD0122AFE75B
:101210000123B5E7233FDEF870B5026805460C46AA
:1012200010683C49A37B0840A16841EA4361237CE4
:10123000002B64D00023667CDB05002E61D00026E5
:1012400043EA86531943E37F41EA03416369194343
:10125000A37FEBB35FF0000341EA4331237F41EA10
:101260000331A3691943237941EA832194F820309B
:101270007BB3002341EA4321E37B41EAC311636A64
:10128000194394F8283041EA03110143116028689A
:101290000668012003F0A0F9286806602A689069B2
:1012A0004FF641710840A36C216D41EA034194F867
:1012B0004C3063B3002394F85560DB01012E00D05D
:1012C000002643EAC603194394F85630012B01E087
:1012D00019E01AE000D0002341EA830194F8543069
:1012E000012B00D0002341EA4301014391612868AA
:1012F0008469012003F070F92868846170BD0123BE
:1013000099E701269CE70123A6E70123B2E7012321
:10131000D1E700000F8120FD2DE9F84304460020AD
:101320000090A56E4FF0010804EB8500E76E866C17
:101330001EE0306A30B9684603F052FB009880B373
:101340003062B060B8F1000F12D0A06D0028606963
:101350002BD040F480407060306840F00040306036
:101360006D1C042D00D32D1F04EB85007F1E866CA1
:1013700017B1B8F1000FDCD1E06EB8420FD0E81C15
:1013800000F00300BFF35F8F216900EB800001EBE9
:10139000C001206800F580508160C4E91A57BDE89B
:1013A000F883FFE74FF00008E2E701490843D2E77E
:1013B0000040008072B600BFFEE700002DE9F04358
:1013C0002DED048BA7B003F057FD0546D848006803
:1013D000281A022804D227B0BDEC048BBDE8F083A4
:1013E000D3480560D3480068401CD2490860D24801
:1013F000007800B9EFE7D148406818B9CF48C06815
:1014000000B9E8E7CE480068002815DDCD4800683F
:10141000801CCC490860CC48007830B90120CA490A
:1014200008704FF47A70C7490860C6480068C74919
:10143000A0FB0101C64A03C204F0CCFEC548006807
:10144000401CC44908600846006864285DD3002039
:101450000860012755E0C7EBC70000EB8710BE49C5
:1014600001EB8000B0F8048000202590269044F61F
:10147000206025A908234FF40162CDE90010414600
:10148000B64808F040FE9DF89A0000F0010088B9C7
:101490009DF89A0040F001008DF89A0044F6206013
:1014A00025A908234FF40162CDE900104146AB485D
:1014B00008F034FE00202390249044F6206023A9F5
:1014C000082340F61802CDE900104146A34808F071
:1014D0001AFE9DF8920000F0010088B99DF8920074
:1014E00040F001008DF8920044F6206023A9082303
:1014F00040F61802CDE900104146984808F00EFE6B
:101500007F1C8F4800688742A5DD8C48806848B101
:101510008A48406830B1894A90685168BFF34F8F5C
:1015200000BF00BF00268548806810B108F0BAFDF2
:1015300006464FF4FA7008F0A9FD044688490C608D
:1015400088480068401C874908600846006840F6E3
:10155000C411884264D30020824908607748C0687B
:101560007649496833462246CDE900107EA107A896
:1015700007F084FE07A807F0FFFC7048007D40B12B
:10158000734885A10CC807A807F078FE07A807F0E4
:10159000F3FC6A488068F8B168484068E0B1674881
:1015A00080684079654989680979644A9268D27887
:1015B000624B9B689B78CDE90032CDE902105F4811
:1015C000806843785D48806802787AA107A807F0B0
:1015D00055FE07A807F0D0FC58480069F8B15748F5
:1015E000C068E0B1554800694079544909690979F2
:1015F000524A1269D278514B1B699B78CDE900326F
:10160000CDE902104D48006943784C4800690278E2
:1016100075A107A807F032FE07A807F0ADFC00BFD0
:101620004648006948B14548C06830B1434A10692E
:10163000D168BFF34F8F00BF00BF78480068401CDF
:10164000764908600846006864280DD300200860C9
:1016500008F016FD4048B0F81C01082801D101200F
:1016600000E000206E4908706E480068401C6D491B
:10167000086008460068B0F5FA7F57D3002008607C
:101680002F480068002851DD6748006800EE100A06
:10169000B8EEC00ADFED650A20EE200ADFED640A2D
:1016A00080EE201A11EE107A6248006800EE100AEF
:1016B000B8EEC00ADFED5D0A20EE200ADFED5C0A1D
:1016C00080EE201A11EE109A002006901B48006947
:1016D00038B11A48C068022803D318480069008846
:1016E00006905548007802F0BFFE80464846FEF757
:1016F000E2FD41EC180B3846FEF7DDFD41EC190B1D
:10170000174800684D490988BDF81820CDE90282C4
:10171000CDE904108DED008B53EC192B48A107A8DF
:1017200007F0ACFD07A807F027FC00BF00BF52E69A
:101730009CC00120ACC0012023C0012000F6002085
:1017400010C00120B0C00120B4C0012040420F00F1
:1017500000C10120B8C0012020180020941A0120E7
:10176000A8C00120BCC001205B44656275675D2094
:10177000574B433D25642C2073656E643D25642CD6
:10178000204F62797465733D25642C204962797419
:1017900065733D25640000005B44656275675D20EC
:1017A00044432074696D653A20256C6C64206E7327
:1017B000000000005B44656275675D204F757470C2
:1017C000757420646174613A2025303258202530C8
:1017D00032582025303258202530325820253032DA
:1017E00058202530325800005B44656275675D20E3
:1017F000496E70757420646174613A2025303258E6
:1018000020253032582025303258202530325820BB
:10181000253032582025303258000000A0C0012069
:1018200024C00120A4C0012034C001200000B44322
:101830000000CA4C30C001203EC001203AC0012047
:101840005B5374617475735D20506F733A252E324B
:10185000662056656C3A252E326620257320535734
:101860003A3078253034582043573A307825303490
:101870005820574B433A25640000000000B5E7B0FC
:101880008BA007F079FB8BA007F076FBFFF706FC37
:1018900000280FD18FA007F06FFB96A007F06CFB1C
:1018A00096A007F069FB9FA007F066FBA4A007F0D5
:1018B00063FB02E0AAA007F05FFBAEA007F05CFBB1
:1018C0000020469066E045AB0222B148469903F0FD
:1018D0004FF844AB0322AE48469903F049F843ABB6
:1018E0000122AB48469903F043F842AB1F22A848B7
:1018F000469903F03DF8429880B2439989B2449AE0
:1019000092B2CDE900210290459880B203461D9025
:10191000A0A147A8469A07F0B1FC47A807F02CFB06
:101920004598002833D04FF6FF71459888422ED055
:10193000A6A147A8469A07F0A1FC47A807F01CFB00
:101940004298C0F382001D901D98012806D00228FD
:101950000AD0052805D006280CD108E0A3A01C90C9
:101960000BE0A5A01C9008E0A6A01C9005E0A9A093
:101970001C9002E0ABA01C9000BF00BFABA147A829
:101980001C9A07F07BFC47A807F0F6FA00BF4698C0
:10199000401C46904698012895DDA848A8A10268F9
:1019A00047A807F06BFC47A807F0E6FAABA007F0E2
:1019B000E3FAB048007850B1AFA007F0DDFA08F0C4
:1019C00035FB0020AB490870642002F005FEB3A08F
:1019D00008F040FB30B9B3A007F0CEFA4FF0FF306B
:1019E00067B000BDB5A007F0C7FAB9A007F0C4FA08
:1019F000BDA007F0C1FAC6A007F0BEFACB48006848
:101A0000406A41900A2002F0E7FDC8480068406A39
:101A10004090C7A147A8409B419A07F02FFC47A8D8
:101A200007F0AAFACBA007F0A7FA00203F904FF4E6
:101A3000FA603FA902230022CDE9001041F2010122
:101A4000CD4808F060FB3E90BDF8FC30CBA147A824
:101A50003E9A07F013FC47A807F08EFAD2A007F0D1
:101A60008BFA002008F0E8FADD490860DDA007F0F5
:101A700083FADB480268E2A147A807F0FFFB47A80A
:101A800007F07AFAD6480068002810DDE1A007F0D8
:101A900073FAE9A007F070FA4FF47A7002F09CFD37
:101AA000ECA007F069FAF0A007F066FAEEE1F7E1C2
:101AB000000000003D3D3D2045746865724341547F
:101AC00020496E697469616C697A6174696F6E200E
:101AD0003D3D3D005761726E696E673A20457468FE
:101AE00065726E6574206C696E6B20697320444F5B
:101AF000574E2100436865636B3A00002020312E69
:101B0000205573652043524F53534F56455220631F
:101B100061626C6520286E6F7420737472616967EE
:101B2000687429002020322E204D6F746F72206956
:101B30007320706F7765726564206F6E000000001F
:101B40002020332E204361626C6520697320666912
:101B5000726D6C7920636F6E6E65637465640000EE
:101B600045746865726E6574206C696E6B2069736C
:101B70002055500052656164696E672050485920B5
:101B80007265676973746572732E2E2E00000000F3
:101B900034DB01205048595B25645D3A20494431CB
:101BA0003D307825303458204944323D3078253056
:101BB0003458204253523D30782530345820534316
:101BC00053523D30782530345800000020202D3EFF
:101BD000205048592064657465637465642061749D
:101BE00020616464726573732025640031304D6236
:101BF00070732048616C660031304D62707320460E
:101C0000756C6C003130304D6270732048616C66C9
:101C1000000000003130304D6270732046756C6CEE
:101C200000000000556E6B6E6F776E0020202D3E19
:101C3000204C696E6B3A202573000000CCC0012057
:101C400043757272656E7420504859204164647205
:101C50006573733A20256C7500000000496E697445
:101C600069616C697A696E6720534F454D2E2E2E3F
:101C70000000000023C001202020436C6F73696EB8
:101C8000672070726576696F757320534F454D20DC
:101C9000696E7374616E63652E2E2E0065746830F4
:101CA000000000004552524F523A2065635F696E52
:101CB0006974206661696C6564210000534F454D6D
:101CC00020696E697469616C697A6564204F4B00A4
:101CD0005363616E6E696E6720666F7220736C610C
:101CE0007665732E2E2E00002020284D616B652016
:101CF0007375726520746F207573652043524F535E
:101D0000534F564552206361626C652129000000E3
:101D1000202043616C6C696E672065635F636F6E42
:101D20006669675F696E69742E2E2E00E4DB012000
:101D3000202054494D3220636865636B3A20626508
:101D4000666F72653D256C752C2061667465723D09
:101D5000256C7500202054657374696E67206E656C
:101D600074776F726B20636F6D6D756E69636174EC
:101D7000696F6E2E2E2E0000941A012020205465CB
:101D800073742072656164204553432074797065D3
:101D90003A20776B633D25642C20646174613D308B
:101DA0007825303458000000202053746172746923
:101DB0006E672065635F636F6E6669675F696E69F2
:101DC0007420776974682074696D656F757420700C
:101DD000726F74656374696F6E2E2E2E00000000A2
:101DE00010C00120202065635F636F6E6669675FC6
:101DF000696E69742072657475726E6564000000A6
:101E0000466F756E6420256420736C617665287357
:101E10002900000057616974696E6720666F72203F
:101E2000736C61766520746F2073746162696C698C
:101E30007A652E2E2E000000202053746172746982
:101E40006E6720313030306D732064656C61792E9F
:101E50002E2E00002020313030306D732064656CF0
:101E6000617920646F6E65004164646974696F6EA6
:101E7000616C2064656C617920666F722045534304
:101E800020696E69742E2E2E00000000D7A007F086
:101E900073F84FF4FA7002F09FFBDBA007F06CF8C8
:101EA000DE480068012816DADDA007F065F8E2A038
:101EB00007F062F8E5A007F05FF8EDA007F05CF826
:101EC000F7A007F059F8FEA007F056F808F0AEF8B2
:101ED0004FF0FF3084E50120469072E04698C0EB59
:101EE000C00101EB8010FE4901EB8000C0684699FB
:101EF000C1EBC10202EB8111F94A02EB8101896851
:101F0000CDE900104698C0EBC00101EB80101146EE
:101F100001EB8000F13003461A90F2A147A8469ADF
:101F200007F0ACF947A807F027F800214698C0EB66
:101F3000C00202EB8010EA4A02EB800080F8C41075
:101F40004698C0EBC00101EB8010114601EB800008
:101F500090F8C4000246EBA11A9047A807F08EF94A
:101F600047A807F009F84698C0EBC00101EB8010C4
:101F7000DB4901EB800080881D9000201C904FF40D
:101F8000FA601CA902230022CDE90010E6481D9941
:101F900008F0B9F81B901B9830B9E4A006F0ECFFEC
:101FA000EAA006F0E9FF09E0BDF87020F3A147A818
:101FB0001B9B07F063F947A806F0DEFF4698401C1C
:101FC0004690964946980968884287DDF2A006F057
:101FD000D3FF01204690F9E04698C0EBC00101EB29
:101FE0008010BF4901EB800080881D9000201B906D
:101FF0001C9019901A9044F620601BA908231A021D
:10200000CDE90010C8481D9908F07DF844F620601D
:1020100019A9082340F60802CDE90010C2481D990D
:1020200008F071F89DF873009DF872109DF871200A
:102030009DF87030CDE90232CDE904109DF86F00B3
:102040009DF86E10CDE900109DF86D0018909DF878
:102050006C0017900246DE4947A8189B07F00EF95E
:1020600047A806F089FF9DF86B109DF86A009DF85F
:1020700069209DF86830CDE90232CDE904019DF870
:1020800067009DF86610CDE900109DF86500189076
:102090009DF8640017900246CE4947A8189B07F0A8
:1020A000EDF847A806F068FF4698C0EBC00101EBC9
:1020B00080108B4901EB80001B9940F8391F1C9957
:1020C00041604698C0EBC00101EB8010844901EBF0
:1020D00080003930199981601A99C1609DF86C00AF
:1020E0009DF86D1040EA01214698C0EBC00202EB5A
:1020F00080107B4A02EB8000A0F8BC109DF86E00B7
:102100009DF86F1040EA01214698C0EBC00202EB37
:102110008010734A02EB8000A0F8BA109DF86400AA
:102120009DF8651040EA01214698C0EBC00202EB21
:1021300080106B4A02EB8000A0F8C0109DF866008A
:102140009DF8671040EA01214698C0EBC00202EBFF
:102150008010634A02EB8000A0F8BE104698C0EBE6
:10216000C00101EB8010114601EB8000B0F8BE0009
:102170004699C1EBC10202EB8111594A02EB810180
:10218000B1F8C010CDE900104698C0EBC00101EBDA
:102190008010114601EB8000B0F8BA001890469804
:1021A000C0EBC00101EB8010114601EB8000B0F8DC
:1021B000BC001790024688A147A8189B07F05EF85C
:1021C00047A806F0D9FE4698401C46901349469809
:1021D000096888427FF700AF8BA006F0CDFE022091
:1021E0003F490880002007F067FF1BE1202053745F
:1021F000617274696E67203530306D732064656C70
:1022000061792E2E2E00000020203530306D732095
:1022100064656C617920646F6E65000010C00120F8
:102220004552524F523A204E6F20736C617665735F
:1022300020666F756E64210054726F75626C6573F1
:10224000686F6F74696E673A000000002020312EBD
:10225000205573652043524F53534F5645522065C6
:10226000746865726E6574206361626C650000005D
:102270002020322E20436865636B206D6F746F726F
:1022800020697320706F776572656420616E6420C9
:10229000696E20626F6F7420737461746500000052
:1022A0002020332E2054727920726573657474690E
:1022B0006E67206D6F746F7220706F7765720000AB
:1022C0002020342E20436865636B206361626C6557
:1022D00020636F6E6E656374696F6E73000000003B
:1022E00020180020536C6176652025643A20257300
:1022F00020283078253038583A3078253038582919
:102300000000000020204D61696C626F7820636FCF
:10231000756E74657220696E697469616C697A653D
:102320006420746F20256400941A012020205741F6
:10233000524E494E473A20455343206E6F742072E7
:102340006573706F6E64696E67210000202055739D
:10235000652027646961672720636F6D6D616E6416
:1023600020666F722064657461696C6564206469BD
:1023700061676E6F7369732E000000002020455363
:102380004320547970653D307825303458202857E3
:102390004B433D25642900005573696E67206175C4
:1023A000746F6D61746963206D61696C626F782010
:1023B000636F6E66696775726174696F6E206672AD
:1023C0006F6D20454550524F4D2E2E2E00000000BF
:1023D0008CC30008D4C3000820204D61696C626F73
:1023E000783A20574F3D3078253034582C204C3DDA
:1023F00025642C20524F3D3078253034582C205203
:102400004C3D256400000000526571756573746968
:102410006E67205052455F4F502073746174652E73
:102420002E2E00004FF4FA703D9000203C900BE0FF
:1024300007F026FEFA48B0F81C01022801D101205D
:102440003C900A2002F0C8F83D98411E3D9110B121
:102450003C980028ECD007F013FEF148B0F81C01BE
:102460003B90EF48B0F81E013A90EEA147A8DDE995
:102470003A3206F003FF47A806F07EFD3C9840B1D3
:102480003B9800F00F00022803D1F0A006F074FD85
:1024900011E0F7A147A83B9A06F0F0FE47A806F026
:1024A0006BFD3A9838B1FCA147A83A9A06F0E6FECF
:1024B00047A806F061FDFEA006F05EFD01204690F3
:1024C0002AE34698C0EBC00101EB8010D44901EB30
:1024D000800080881D9000201B901C9019901A90FD
:1024E00044F620601BA908231A02CDE90010FC481D
:1024F0001D9907F008FE44F6206019A9082340F64C
:102500000802CDE90010F6481D9907F0FCFD9DF882
:1025100073209DF872009DF871109DF87030CDE920
:102520000231CDE904029DF86F009DF86E10CDE9EF
:1025300000109DF86D0007909DF86C000690024613
:10254000E8A147A8079B06F099FE47A806F014FDEE
:102550009DF86B009DF86A209DF869109DF8683021
:10256000CDE90231CDE904209DF867009DF86610A1
:10257000CDE900109DF8650007909DF86400069075
:102580000246E8A147A8079B06F078FE47A806F098
:10259000F3FC9DF86C009DF86D1040EA0120189046
:1025A0009DF86E109DF86F0041EA002017909DF88D
:1025B00064009DF8651040EA012016909DF86600C1
:1025C0009DF8671040EA01201590DDE91510CDE96E
:1025D0000001E4A147A8DDE9173206F04FFE47A845
:1025E00006F0CAFC4698C0EBC00101EB80108C4994
:1025F00001EB8000B0F8BE004699C1EBC10202EBCE
:102600008111874A02EB8101B1F8C010CDE90010B9
:102610004698C0EBC00101EB8010114601EB800031
:10262000B0F8BA0007904698C0EBC00101EB8011EA
:10263000104600EB8100B0F8BC0006900246D8A11D
:1026400047A8079B06F01AFE47A806F095FC469897
:10265000C0EBC00101EB8010714901EB8000B0F8C4
:10266000BA00002865D1DDA006F086FC4FF4805149
:102670004698C0EBC00202EB8010694A02EB800072
:10268000A0F8BC1080214698C0EBC00202EB80107D
:10269000634A02EB8000A0F8BA104FF484514698C8
:1026A000C0EBC00202EB80105D4A02EB8000A0F894
:1026B000C01080214698C0EBC00202EB8010584A3F
:1026C00002EB8000A0F8BE104698C0EBC00101EB01
:1026D0008010114601EB8000B0F8BE004699C1EBB6
:1026E000C10202EB81124E4901EB8201B1F8C01028
:1026F000CDE900104698C0EBC00101EB80104849BD
:1027000001EB8000B0F8BA0007904698C0EBC0011A
:1027100001EB8011424800EB8100B0F8BC0006904C
:102720000246BE4947A8079B06F0A8FD47A806F049
:1027300023FC4698C0EBC00101EB8010384901EB47
:1027400080001B9940F8391F1C9941604698C0EBE6
:10275000C00101EB8010324901EB8000393019993A
:1027600081601A99C16001214698C0EBC00202EB5A
:1027700080102B4A02EB800080F83110022146982D
:10278000C0EBC00202EB8010254A02EB800080F80B
:102790003210A3A006F0F0FBABA103C9CDE91301F1
:1027A00044F6206113A808231A02CDE900014C4821
:1027B0001D9907F0B3FC1290A5A147A8129A06F044
:1027C0005DFD47A806F0D8FBA8A103C9CDE910011B
:1027D00044F6206010A9082340F60802CDE9001055
:1027E0003F481D9907F09AFC0F90A2A147A80F9AA5
:1027F00006F044FD47A806F0BFFB0A2001F0ECFEFE
:1028000044F620610DA808231A02CDE900013448DE
:102810001D9907F078FC44F620610BA8082337E1E6
:10282000201800202020414C205374617475733AA5
:10283000203078253034582C20414C20436F64657B
:102840003A20307825303458000000005052455F5F
:102850004F502073746174652072656163686564AC
:10286000207375636365737366756C6C7900000023
:102870005761726E696E673A205052455F4F502023
:102880006661696C65642C2073746174653D307891
:102890002530345800000000414C204572726F72A0
:1028A00020436F64653A20307825303458000000AA
:1028B000566572696679696E67204D61696C626FF1
:1028C000782028534D302F534D312920636F6E6689
:1028D000696775726174696F6E2E2E2E000000009C
:1028E000941A01202020534D3020284D426F784FFC
:1028F00075742920454550524F4D3A2025303258A5
:1029000020253032582025303258202530325820AA
:102910002530325820253032582025303258202595
:10292000303258002020534D3120284D426F7849D5
:102930006E2920454550524F4D3A202025303258BF
:10294000202530325820253032582025303258206A
:102950002530325820253032582025303258202555
:102960003032580020204D61696C626F78206672A9
:102970006F6D20454550524F4D3A20574F3D3078AE
:10298000253034582C204C3D25642C20524F3D30AE
:1029900078253034582C20524C3D2564000000002E
:1029A0002020534F454D206D62785F776F3D307822
:1029B000253034582C206D62785F6C3D25642C20C6
:1029C0006D62785F726F3D3078253034582C206D01
:1029D00062785F726C3D2564000000002020574142
:1029E000524E494E473A20534F454D206D61696C18
:1029F000626F78206E6F7420636F6E6669677572A0
:102A000065642C207573696E6720455349206465A1
:102A10006661756C74732E2E2E000000F8C50008D8
:102A200020205573696E6720454550524F4D205305
:102A30004D302F534D3120636F6E6669677572613B
:102A400074696F6E2E2E2E0000108000260001008B
:102A50002020534D3020636F6E66696720283078E0
:102A60003236293A20776B633D2564008010800060
:102A7000220001002020534D3120636F6E6669678C
:102A8000202830783232293A20776B633D25640064
:102A900040F60802CDE90001FB481D9907F033FB21
:102AA0009DF834109DF8350041EA00200A909DF809
:102AB00036109DF8370041EA002009909DF8380053
:102AC00008909DF83A100898CDE90001EF4947A811
:102AD000DDE9093206F0D2FB47A806F04DFA469828
:102AE000C0EBC00101EB8011E94800EB81000D99BA
:102AF00040F8391F0E9941604698C0EBC00101EBC8
:102B00008010E34901EB800039300B9981600C990A
:102B1000C1604698401C4690DE4946980968884244
:102B20007FF7CFACDCA006F027FA0120469052E0F8
:102B30004698C0EBC00101EB8010D54901EB800045
:102B400080881D9000201C9044F620601CA9022360
:102B50004FF41862CDE90010CB481D9907F0DEFA5A
:102B60001B90BDF87020D8A147A81B9B06F086FBE0
:102B700047A806F001FA00201A9044F620611AA82E
:102B8000012340F68112CDE90001BF481D9907F0ED
:102B9000C5FA00214698C0EBC00202EB8010BC4A87
:102BA00002EB800080F8F0104698C0EBC00202EB08
:102BB0008010B74A02EB8000C0F8E8104698C0EBDE
:102BC000C00202EB8010B24A02EB8000C0F8EC10A9
:102BD0004698401C4690AF49469809688842A7DD50
:102BE0000020C6490875C882C5A006F0C5F9322084
:102BF00001F0F2FCCDA006F0BFF9DBA006F0BCF9B5
:102C0000E6A006F0B9F9F3A006F0B6F90120469067
:102C100065E00C214698C0EBC00202EB80109C4A94
:102C200002EB800080F84B1000214698C0EBC002F8
:102C300002EB8010964A02EB800080F84C101221C3
:102C40004698C0EBC00202EB8010914A02EB800074
:102C500080F8531000214698C0EBC00202EB8010B0
:102C60008B4A02EB800080F854104698C0EBC001FC
:102C700001EB8010114601EB800090F8531046984C
:102C8000C0EBC00202EB8010814A02EB800090F89A
:102C9000540041EA002000904698C0EBC00101EBCF
:102CA0008010114601EB800090F84B104698C0EB65
:102CB000C00202EB8010764A02EB800090F84C00D4
:102CC00041EA002003461D90CC4947A8469A06F0E9
:102CD000D5FA47A806F050F94698401C46906D4931
:102CE00046980968884294DDC5A006F045F9CFA052
:102CF00006F042F9D9A006F03FF9E8A006F03CF949
:102D00000C21634880F86711002180F868110321C5
:102D100080F84F11122180F86F11002180F8701196
:102D2000042180F85011E8A006F026F9F4A006F07E
:102D300023F90120469058E04698C0EBC00101EB12
:102D40008010534901EB800080881D90F8A103C9D1
:102D5000CDE91B0144F620601BA908234FF4016252
:102D6000CDE9001048481D9907F0D8F91A90F249AA
:102D700047A81A9A06F082FA47A806F0FDF8EFA1D4
:102D800003C9CDE9180144F6206018A9082340F6CC
:102D90001802CDE900103C481D9907F0BFF91790C3
:102DA000E84947A8179A06F069FA47A806F0E4F838
:102DB0004698C0EBC00101EB8010354901EB800063
:102DC00039301B9901611C9941614698C0EBC001E3
:102DD00001EB80102E4901EB800039301899816198
:102DE0001999C1614698401C46902A49469809683D
:102DF0008842A1DDD4A006F0BFF80021E04807F02A
:102E000021F93990DFA147A8399A06F037FA47A887
:102E100006F0B2F83948C0681D90384840681C90E8
:102E20000246E1A147A81D9B06F028FA47A806F034
:102E3000A3F8D3480090314800691D902F4880685E
:102E40001C900246E0A147A81D9B06F017FA47A870
:102E500006F092F829480069C949401A1D90274890
:102E60008068401A1C900246E2A147A81D9B06F00C
:102E700005FA47A806F080F82048406810B11F48BE
:102E8000C06800B9CEE1EBE1941A0120E8C4000863
:102E90002018002010C00120544553543A20557387
:102EA000696E6720467265652052756E206D6F648D
:102EB00065202844432073796E63206469736162DE
:102EC0006C6564292E2E2E00202041737369676E75
:102ED00041637469766174652073657420746F2032
:102EE0003078253034582028467265652052756E3A
:102EF0002C20776B633D25642900000000F600203C
:102F00002020467265652052756E206D6F646520C5
:102F1000656E61626C6564202844432073796E633A
:102F20002064697361626C6564290000536B697089
:102F300070696E672053444F20636F6D6D756E69C5
:102F4000636174696F6E20284B61697365724472A6
:102F500069766520636F6D7061746962696C69740C
:102F600079292E2E2E00000020204E6F74653A2005
:102F700053444F2077696C6C20626520636F6E66E6
:102F8000696775726564206D616E75616C6C79201E
:102F90006C696B652049474800000000202053659C
:102FA0007474696E672064656661756C74206F70F7
:102FB00065726174696F6E206D6F646520746F2037
:102FC0004353562028392920696E20736F66747721
:102FD00061726500436F6E6669677572696E67201E
:102FE00050444F206D617070696E672028494748D2
:102FF0002D7374796C65292E2E2E000040C60008B2
:1030000050444F20636F6E66696775726174696FB3
:103010006E20636F6D706C657465202853444F2D6E
:103020006C657373206D6F6465290000536B697064
:1030300070696E672053444F20636F6E66696775D1
:10304000726174696F6E20287573696E67205044D1
:103050004F2064656661756C747329005573696EE1
:10306000672064656661756C742050444F2041731D
:103070007369676E6D656E742066726F6D2045535F
:10308000493A2030783136303120285278292C20A6
:1030900030783141303120285478290053657474D8
:1030A000696E672064656661756C742050444F20BA
:1030B00041737369676E6D656E74206D616E7561C5
:1030C0006C6C792E2E2E000044656661756C742040
:1030D00050444F2041737369676E6D656E74207341
:1030E00065743A2030783136303120285278292CD6
:1030F00020307831413031202854782900000000F8
:10310000436F6E6669677572696E6720534D322F23
:10311000534D3320666F722050444F20636F6D6DA6
:10312000756E69636174696F6E2E2E2E000000004B
:1031300000110C0064000101B4C50008001D12005C
:103140002000010170C5000843616C6C696E672046
:1031500065635F636F6E6669675F6D61705F6772FD
:103160006F757020287769746820666978656420B7
:10317000464D4D552054797065292E2E2E000000A5
:1031800058F80020202065635F636F6E6669675F93
:103190006D61705F67726F75702072657475726EA5
:1031A00065643A2025640000202047726F75702006
:1031B0004F62797465733D25642C2049627974658A
:1031C000733D256400000000202044454255473AE5
:1031D000206F7574707574733D25702C20696E7046
:1031E0007574733D25702C20494F6D61703D2570BD
:1031F00000000000202044454255473A206F757476
:1032000070757473206F66667365743D25642C2039
:10321000696E70757473206F66667365743D25649E
:1032200000000000E4A005F0A7FE0C20F249486071
:103230001220C8600C21F148C0F838111221C0F8E2
:103240004411ED48C0681D90EB4840681C90024650
:10325000EBA147A81D9B06F011F847A805F08CFECE
:10326000F1A005F089FEFE4805F086FEFDA005F000
:1032700083FE012046904FE003214698C0EBC00238
:1032800002EB8010DD4A02EB800080F8331004214D
:103290004698C0EBC00202EB8012D84800EB8200D7
:1032A00080F834100C214698C0EBC00202EB80106D
:1032B000D24A02EB800080F84B1000214698C0EB08
:1032C000C00202EB8012CD4800EB820080F84C1067
:1032D00012214698C0EBC00202EB8010C74A02EBF5
:1032E000800080F8531000214698C0EBC00202EB2A
:1032F0008010C24A02EB800080F8541012200C2388
:103300000090E8A147A8469A05F0B8FF47A805F045
:1033100033FE4698401C4690F0494698096888421A
:10332000AADDEF4805F028FEEEA005F025FE0020FE
:1033300038900120469022E04698C0EBC00101EB96
:103340008010AE4901EB800080881D9044F620611A
:1033500038A802234FF49A72CDE90001EA481D997A
:1033600006F0DCFE1C90E9A147A81C9B469A05F0DC
:1033700085FF47A805F000FE4698401C4690D749B7
:10338000469809688842D7DD322001F025F9EBA084
:1033900005F0F2FDF6A005F0EFFD9748C08A1D90FC
:1033A0009548007D1C900246FAA147A81D9B05F098
:1033B00065FF47A805F0E0FDFDA005F0DDFD042157
:1033C0008E480180002006F077FEC820379000BFAD
:1033D00006F056FE012001F0FFF83798411E3791A4
:1033E00020B18648B0F81C010428F1D18348B0F818
:1033F0001C0104280CD08148B0F81C010246F3A13E
:103400001D9047A805F03AFF47A805F0B5FD02E07A
:10341000F8A005F0B1FDFDA005F0AEFD44F620607A
:1034200035A9CDE900107548B0F8200108234FF404
:10343000016201461D90B44806F065FE329044F6E4
:10344000206033A9CDE900106C48B0F820010823B2
:1034500040F6180201461D90AB4806F054FE31902C
:103460009DF8DB109DF8DA209DF8D9303298CDE92F
:103470000332CDE905109DF8D8109DF8D7009DF8CE
:10348000D620CDE9002002919DF8D5001D909DF831
:10349000D4001C900246E5A147A81D9B05F0EEFE56
:1034A00047A805F069FD9DF8D3109DF8D2209DF83E
:1034B000D1303198CDE90332CDE905109DF8D00027
:1034C0009DF8CF109DF8CE20CDE9002102909DF807
:1034D000CD001D909DF8CC001C900246E1A147A8AC
:1034E0001D9B05F0CBFE47A805F046FD9DF8DA00D0
:1034F00000F0010010BBE9A005F03EFD9DF8DA00E8
:1035000040F001008DF8DA0044F6206135A8CDE9DD
:1035100000013A48B0F8200108234FF40162014647
:103520001C90794806F0FAFD1D90E9A147A81D9A64
:1035300005F0A4FE47A805F01FFD00BF9DF8D200CE
:1035400000F0010010BBE8A005F016FD9DF8D200C8
:1035500040F001008DF8D20044F6206033A9CDE997
:1035600000102648B0F82001082340F61802014652
:103570001C90654806F0D2FD1D90E8A147A81D9A51
:1035800005F07CFE47A805F0F7FC00BF0020309056
:1035900044F6206030A9CDE900101848B0F82001A9
:1035A00002234FF4987201461D90574806F0ABFD78
:1035B0002F90BDF8C000BDE120204552524F523A35
:1035C0002050444F206D617070696E67206661699C
:1035D0006C65642C206D616E75616C6C792073650F
:1035E0007474696E67204F62797465732F496279CC
:1035F000746573210000000000F6002020180020F0
:1036000020204D616E75616C6C79207365743A2071
:103610004F62797465733D25642C20496279746525
:10362000733D256400000000536B697070696E671C
:103630002053444F2050444F2041737369676E6D8F
:10364000656E7420284D61696C626F78206E6F74AE
:1036500020726573706F6E64696E672900000000E8
:1036600048C300084D616E75616C6C7920636F6EA4
:103670006669677572696E672050444F20417373A5
:1036800069676E6D656E7420696E2065635F736C2B
:10369000617665207374727563747572652E2E2E53
:1036A000000000002020536C6176652025643A20DC
:1036B000534D323D6F7574707574732825642062A4
:1036C00079746573292C20534D333D696E70757480
:1036D00073282564206279746573290010C0012065
:1036E00004C30008436C656172696E6720414C2019
:1036F0004572726F7220436F6465207265676973EB
:103700007465722E2E2E0000941A01202020414C48
:10371000204572726F7220436F646520636C65612F
:1037200072656420666F7220736C61766520256413
:103730002028776B633D256429000000534D32201B
:10374000636F6E66696775726174696F6E3A203077
:1037500078363420284553492064656661756C7459
:1037600020666F72204F75747075747329000000A5
:10377000566572696679696E672044432073796E75
:103780006320636F6E66696775726174696F6E2E10
:103790002E2E0000202044432068617364633D2581
:1037A000642C2044436E6578743D2564000000005D
:1037B00052657175657374696E6720534146455F44
:1037C0004F502073746174652E2E2E005761726EF7
:1037D000696E673A20534146455F4F5020666169E4
:1037E0006C65642C2073746174653D3078253034C9
:1037F00058000000534146455F4F50207374617478
:1038000065207265616368656400000043686563F4
:103810006B696E6720534D20636F6E6669677572C2
:103820006174696F6E2E2E2E00000000534D323AE7
:10383000202530325820253032582025303258206B
:103840002530325820253032582025303258202556
:1038500030325820253032582028776B633D25645C
:1038600029000000534D333A2025303258202530AE
:103870003258202530325820253032582025303219
:1038800058202530325820253032582025303258E3
:103890002028776B633D2564290000005741524E74
:1038A000494E473A20534D32204163742062697477
:1038B0002069732064697361626C65642C20726591
:1038C0002D656E61626C696E672E2E2E0000000001
:1038D000534D322072652D656E61626C65642028DF
:1038E000776B633D256429005741524E494E473A54
:1038F00020534D3320416374206269742069732022
:1039000064697361626C65642C2072652D656E61FB
:10391000626C696E672E2E2E00000000534D33201E
:1039200072652D656E61626C65642028776B633DFE
:103930002564290008F01EFA1D90CF48B0F81E013A
:103940000090CEA147A82F9B1D9A05F097FC47A891
:1039500005F012FBD5A005F00FFBE2A005F00CFB73
:103960000020EE4908600220ED4908600620ED497C
:1039700008600A20EC4908600020EC490860022039
:10398000EB4908600620EB4908600A20EA49086014
:103990001020EA490860E4480168E2480068CDE97F
:1039A0000001DF480368DD480268E5A147A805F08B
:1039B00065FC47A805F0E0FAEDA005F0DDFAF6A0F9
:1039C00005F0DAFA4FF48051FE48FCF745FC002080
:1039D0001D900EE006F066FB012000F0FDFD4FF4A7
:1039E000FA6006F053FB012000F0F6FD1D98401C24
:1039F0001D901D980A28EDDBF3A005F0BDFAF9A093
:103A000005F0BAFA08219C480180002006F054FB1A
:103A1000C8202E900021FB48017000BF06F030FB4B
:103A2000012000F0D9FD9448B0F81C01082802D10B
:103A30000120F44908702E98411E2E9118B1F148CA
:103A400000780028EAD0F0A005F096FA44F620604D
:103A50002CA9CDE900108848B0F8200108234FF4C4
:103A6000016201461D90F44806F04DFB44F62060CB
:103A70002AA9CDE900108048B0F82001082340F6BB
:103A8000180201461D90EC4806F03DFB9DF8B7205A
:103A90009DF8B6009DF8B5109DF8B430CDE902311F
:103AA000CDE904029DF8B3009DF8B210CDE90010F5
:103AB0009DF8B1001D909DF8B0001C900246DFA15A
:103AC00047A81D9B05F0DAFB47A805F055FA9DF8BD
:103AD000AF009DF8AE209DF8AD109DF8AC30CDE95B
:103AE0000231CDE904209DF8AB009DF8AA10CDE984
:103AF00000109DF8A9001D909DF8A8001C9002469A
:103B0000DAA147A81D9B05F0B9FB47A805F034FAD8
:103B1000E2A005F031FA44F6206026A9CDE90010B4
:103B20005548B0F8200110234FF4C06201461D90A3
:103B3000C14806F0E8FA44F6206022A9CDE9001059
:103B40004D48B0F8200110234FF4C26201461D9089
:103B5000B94806F0D8FA44F620601EA9CDE9001055
:103B60004548B0F8200110234FF4C46201461D906F
:103B7000B14806F0C8FA9DF8A4109DF8A3209DF85E
:103B80009C009DF89D30CDE90230CDE904219DF8DF
:103B900098009DF89910CDE900109DF89A001D90AD
:103BA0009DF89B001C900246C44947A81D9B05F048
:103BB00065FB47A805F0E0F99DF89F009DF8A2106D
:103BC000CDE900109DF8A0001D909DF8A1001C906B
:103BD0000246BBA147A81D9B05F050FB47A805F076
:103BE000CBF99DF894009DF893109DF88C209DF8DA
:103BF0008D30CDE90232CDE904109DF888009DF8A2
:103C00008910CDE900109DF88A001D909DF88B0069
:103C10001C900246B84947A81D9B05F02FFB47A8FA
:103C200005F0AAF99DF88F009DF89210CDE90010DB
:103C30009DF890001D909DF891001C900246AFA148
:103C400047A81D9B05F01AFB47A805F095F99DF8BC
:103C500084009DF883209DF87C109DF87D30CDE98F
:103C60000231CDE904209DF878009DF87910CDE966
:103C700000109DF87A005DE120180020414C20538F
:103C800074617475733A2030782530345820287761
:103C90006B633D2564292C204572726F72436F64FB
:103CA000653A20307825303458000000536B697035
:103CB00070696E672053444F20696E20534146451A
:103CC0005F4F5020737461746520284D61696C6288
:103CD0006F78206E6F7420726573706F6E64696E9A
:103CE000672900005573696E672064656661756CAD
:103CF000742050444F2041737369676E6D656E7414
:103D00003A2030783136303120285278292C203032
:103D100078314130312028547829000050C00120EA
:103D200054C0012058C001205CC0012060C00120A7
:103D300064C0012068C001206CC0012070C0012057
:103D400050444F206F6666736574733A20637472D3
:103D50006C3D25642C20706F733D25642C207665A6
:103D60006C3D25642C20746F723D256400000000BA
:103D7000507265706172696E6720666F72204F5075
:103D800045524154494F4E414C207472616E7369E3
:103D900074696F6E2E2E2E00202053656E64696E3E
:103DA0006720696E697469616C2070726F636573F6
:103DB000732064617461206672616D65732E2E2EAE
:103DC0000000000058F800202020496E69746961E5
:103DD0006C2070726F63657373206461746120730B
:103DE000656E740052657175657374696E67204FF6
:103DF0005045524154494F4E414C20737461746593
:103E00002E2E2E0024C0012052652D636865636B41
:103E1000696E6720534D204163742062697473207A
:103E20006166746572204F50207472616E7369749C
:103E3000696F6E2E2E2E0000941A01202020534D03
:103E4000323A202530325820253032582025303261
:103E5000582025303258202530325820253032580D
:103E60002025303258202530325800002020534D74
:103E7000333A202530325820253032582025303230
:103E800058202530325820253032582025303258DD
:103E900020253032582025303258000043686563B1
:103EA0006B696E6720464D4D5520636F6E6669677E
:103EB00075726174696F6E2E2E2E00001CC400088E
:103EC0002020464D4D55303A205068797341646446
:103ED000723D253032582530325820537461727447
:103EE0004269743D2530325820456E644269743D04
:103EF000253032580000000060C400082020464DE4
:103F00004D55313A2050687973416464723D2530D3
:103F10003258253032582053746172744269743DAE
:103F20002530325820456E644269743D2530325840
:103F3000000000001D909DF87B001C900246744913
:103F400047A81D9B05F09AF947A805F015F89DF8BC
:103F50007F009DF88210CDE900109DF880001D9033
:103F60009DF881001C9002466AA147A81D9B05F0A0
:103F700085F947A805F000F89DF8840010BB73A0F0
:103F800004F0FAFF81A30FCBCDE91C23CDE91A0180
:103F900044F620601AA9CDE900108048B0F820014D
:103FA00010234FF4C462014618907D4806F0B6F81D
:103FB00019907CA147A8199A05F060F947A804F068
:103FC000DBFF00BF9DF8B60000F00100C0B97FA084
:103FD00004F0D2FF9DF8B60040F001008DF8B60065
:103FE00044F620602CA9CDE900106C48B0F82001FF
:103FF00008234FF4016201461D90694806F08EF8CF
:104000009DF8AE0000F00100C0B97CA004F0B4FF40
:104010009DF8AE0040F001008DF8AE0044F620603F
:104020002AA9CDE900105D48B0F82001082340F628
:10403000180201461D905A4806F070F87B48007837
:10404000002831D07AA004F097FF80A004F094FFFC
:10405000642000F0C1FA00201D9001201C9044F65D
:1040600020601DA91CAA0023CDE90032CDE9021071
:1040700041F612420121824806F070F81B909DF82B
:10408000743080A147A81B9A05F0F8F847A804F0FF
:1040900073FF1B98002803DD87A004F06DFF02E08A
:1040A0008EA004F069FF0EE03C48B0F81C01024607
:1040B00093A11D9047A805F0E1F847A804F05CFF24
:1040C0009CA004F059FFA6A004F056FFB1A004F094
:1040D00053FF0121BF4801700120BF490870002132
:1040E000BE480160BEA004F047FF5048007820B9E8
:1040F0002A48B0F81C01042803D1C2A004F03CFFF8
:1041000002E0CCA004F038FF0020FDF769BC0000FD
:10411000A4C400082020464D4D55323A20506879FD
:1041200073416464723D2530325825303258205333
:10413000746172744269743D2530325820456E6452
:104140004269743D2530325800000000202043525F
:1041500049544943414C3A20464D4D5532206E6FEB
:104160007420636F6E666967757265642C20636F77
:104170006E6669677572696E6720666F72204D4260
:104180006F7853746174652E2E2E000010000000AD
:1041900001000303050800010100000020180020B1
:1041A000941A01202020464D4D553220636F6E66D3
:1041B00069677572656420284D426F785374617425
:1041C00065293A20776B633D256400002020574124
:1041D000524E494E473A20534D322041637420627B
:1041E00069742064697361626C65642C2072652D4A
:1041F000656E61626C696E672E2E2E00202057411D
:10420000524E494E473A20534D3320416374206249
:1042100069742064697361626C65642C2072652D19
:10422000656E61626C696E672E2E2E0024C00120BF
:104230004F5045524154494F4E414C207374617464
:10424000652072656163686564210000546573745C
:10425000696E672053444F20636F6D6D756E69639F
:104260006174696F6E20696E204F50455241544908
:104270004F4E414C2073746174652E2E2E00000049
:1042800058080120202053444F207265616420307B
:1042900078314331323A302028527850444F2063ED
:1042A0006F756E74293A20776B633D25642C2076F8
:1042B000616C75653D256400202053444F20696E74
:1042C000204F5045524154494F4E414C2073746128
:1042D000746520574F524B53210000002020534457
:1042E0004F20696E204F5045524154494F4E414C2A
:1042F000207374617465206661696C6564000000F8
:104300005761726E696E673A204F50455241544969
:104310004F4E414C2074696D656F75742C20736C21
:104320006176652073746174653D3078253034584A
:10433000000000005573696E6720534146455F4F8A
:104340005020666F722043694134303220737461AB
:104350007465206D616368696E652E2E2E00000005
:1043600050444F2041737369676E6D656E743A20D7
:104370005573696E67204553492064656661756CA5
:10438000747320283078313630312F307831413015
:104390003129000020204E6F74653A2050444F2090
:1043A00041737369676E6D656E7420697320696E01
:1043B00020436F45206F626A65637420646963748B
:1043C000696F6E617279202853444F206F6E6C794B
:1043D0002900000023C0012044C0012048C0012062
:1043E000457468657243415420696E697469616CF3
:1043F000697A6174696F6E20636F6D706C65746546
:104400002100000050444F20636F6D6D756E69632D
:104410006174696F6E2072656164792028776169C3
:1044200074696E6720666F7220574B43203E2030C0
:10443000290000005741524E494E473A20536C61C3
:104440007665206E6F7420696E204F50455241543E
:10445000494F4E414C206F7220534146455F4F50AB
:1044600020737461746521000146082915D2DFE8C4
:1044700001F00406080A0C0E101209A070470BA0E8
:10448000FCE70FA0FAE713A0F8E715A0F6E719A0DC
:10449000F4E71BA0F2E71EA0F0E71FA0EEE7000084
:1044A0004E6F74205265616479000000537769741F
:1044B0006368204F6E2044697361626C656400001C
:1044C000526561647920746F205377697463682042
:1044D0004F6E00005377697463686564204F6E0007
:1044E0004F7065726174696F6E20456E61626C65B4
:1044F00064000000517569636B2053746F70000095
:104500004661756C74205265616374696F6E00005A
:104510004661756C74000000556E6B6E6F776E00AF
:104520002DE9F0410446876D00F0A6FC064694F89C
:1045300035000025022806D08020606584F83450BC
:104540000120BDE8F0812068016821F016010160BA
:104550002068416921F080014161206C08B9A06C9C
:1045600020B12068016821F008010160206801681D
:1045700021F0010101600CE000F07EFC801B0528A9
:1045800007D920206065032084F8350084F8345072
:10459000D7E720680068C007EED194F85C103F2090
:1045A0008840B860012084F8350084F83450002039
:1045B000C7E790F83510022903D08021416501201A
:1045C0007047052180F835100068016821F001016D
:1045D000016000207047000070B5044600F04CFCFC
:1045E0000546601C02D004480078044400F044FCF6
:1045F000401BA042FAD370BDE0C001207047B9B3A0
:104600000268526802F001020A7002685268C2F33E
:104610004002CA7002685268C2F380020A710268DE
:104620005268C2F3C0020A7202685268C2F30012F2
:104630004A7102685268C2F340124A7202685268B4
:1046400002F0C002CA6002685268C2F30022CA7156
:1046500002685268C2F340228A7102685268C2F34B
:1046600080228A7000684068C00F48700020704740
:10467000FFE70120FBE700002DE9F0470446006852
:1046800050F8387FD0F8DC5FD0F8E46FDFF8B490F2
:10469000D9F8008000F6C870690606D5710604D501
:1046A00029494161204600F0AFF905EA0600C0073C
:1046B00008D020684FF0011100F58050416120467C
:1046C00000F0A1FA280423D5300421D5D4F88800BD
:1046D00040F00800C4F88800A804206800F5805065
:1046E0000CD54169194A1140C4F88C10C16921F4F4
:1046F000C031C161E020C4F8840006E0426948F29C
:1047000080610A40C4F88C2041612046FFF776FFA3
:1047100038070BD52068C06A00F06000C4F8940028
:10472000204600F023F90020C4F894005FEA083026
:1047300006D54FF40021C9F80010204600F064FAB5
:10474000BDE8F087143C01404000010000207E00DD
:10475000F8B5040003D0D4F8840010B107E00120BC
:10476000F8BD2020C4F88400204600F093F84548A6
:104770000025016841F480410160006800F4804038
:1047800000904148016821F4000101600168A268BD
:10479000114301600068206800F58050016841F015
:1047A0000101016000F068FB06464FF4FA770BE068
:1047B00000F062FB801BB84206D90420C4F88800D0
:1047C000E020C4F88400CAE7206800F58050006843
:1047D000C007EDD12046FCF76FFC0021E06801EB3B
:1047E000810200EBC200056045608560C56004EB96
:1047F00081039861036843F480130360032905D2A1
:104800002826E36806EBC2021A4400E0E268C260B0
:10481000026842F440020260491C0429DED3A5620A
:104820002068E16800F5805001612046FCF7EAFB52
:104830006068164A818811640178C37841EA03618F
:10484000837840781B0443EA0020014351642068C8
:10485000C16B41F40271C1632068D0F80C110C4A9D
:104860001143C0F80C112068D0F8101141F4031165
:10487000C0F81011C4F888501020C4F8840000203B
:10488000F8BD000044380240043801400080024076
:1048900060000200F0B587B0044614216846FBF7BB
:1048A000DBFC2D492068884253D12C480024016844
:1048B00041F000710160016801F00071059101682B
:1048C00041F080610160016801F08061059101683B
:1048D00041F000610160016801F00061059101682B
:1048E00041F004010160016801F0040105910168D3
:1048F00041F001010160016801F0010105910168C9
:1049000041F0020101600068022500F002000590FC
:104910003220CDE9000502AA03260B2782E8D00049
:1049200069460F4800F09EF98620CDE9000502AAED
:10493000694682E8D0000B4800F094F94FF46050CB
:10494000CDE9000502AA694682E8D000064800F0D9
:1049500089F907B0F0BD0000008002403038024005
:1049600000080240000002400004024070470000BE
:104970002DE9F041984603680546186900F01C04CB
:104980004FF6FF7000EAC1204FF4F861204301EABE
:104990008211014321F0020040F001041C6100F08B
:1049A0006BFA06464FF480370AE000BF00F064FA65
:1049B000801BB84202D30120BDE8F0812868046959
:1049C000E007F3D12868406981B20020C8F80010E0
:1049D000F2E719B1C0F8A01000207047012070471D
:1049E00007494A68C2EB821303EBC212054B03EB83
:1049F000C20202604868401C00F003004860704733
:104A0000CCC00120D4C201200121014A117070479D
:104A10000CC0012070B5044679B30878CA780B7AC7
:104A200040EA42000A79920042EAC30210434A79FE
:104A300040EA02104A7A012A00D0002240EA4210DD
:104A4000CA7940EA02208A7940EA42208A7840EA1C
:104A500082204A78C96840EAC270084321684A68DF
:104A6000074B1A4002434A60206845680120FFF75F
:104A7000B3FD20684560002070BDFFE70120FBE723
:104A800000F8FF7F70B50446D0F88400102801D0EC
:104A9000012070BD2020C4F884000420E066204678
:104AA000FCF73AFC2068016841F0080101602068C9
:104AB00005680120FFF790FD206805602068016807
:104AC00041F004010160206805680120FFF784FDC2
:104AD000206805602046FCF7CAFA206800F580507F
:104AE000816941F400518161206800F5805081693D
:104AF00041F0020181614020C4F88400002070BDB3
:104B000070B50446D0F88400102801D0012070BD93
:104B10002020C4F884000120A0650420E06620461F
:104B2000FCF7FAFB206805680120FFF755FD2068B7
:104B30000560206800F58050816941F40051816171
:104B4000206800F58050816941F0020181612046B2
:104B5000FCF78DFA2068016841F0080101602068C7
:104B600005680120FFF738FD2068056020680168AE
:104B700041F004010160206800F58050C169044AD9
:104B80001143C1614020C4F88400002070BD0000C2
:104B9000C1A0010070B50446D0F88400402801D0BF
:104BA000012070BD2020C4F88400206800F58050EA
:104BB000816921F400518161206800F5805081698C
:104BC00021F0020181612068016821F00401016087
:104BD000206805680120FFF7FFFC2068056020467B
:104BE000FCF745FA2068016821F00801016020689F
:104BF00005680120FFF7F0FC206805601020C4F86C
:104C00008400002070BD7047704700002DE9F0411E
:104C100006680546306900F01C044FF6FF7000EA94
:104C2000C1204FF4F861204301EA8211014398B298
:104C300041F0030470612868046100F01DF9064624
:104C40004FF480370AE000BF00F016F9801BB8422D
:104C500002D30120BDE8F08128680469E007F3D1A0
:104C6000F8E700002DE9F84FDFF8BCA1002201258C
:104C700003264FF00F090AF1040BAAF1040E00BF3E
:104C80000B6805FA02F42340A34270D10F7907F0B4
:104C90000307012F01D0022F16D187684FEA42087F
:104CA00006FA08FC27EA0C07D1F80CC00CFA08FC3D
:104CB0004CEA070CC0F808C04768A7430C79C4F356
:104CC000001494403C4344600C79E443A4070AD0A8
:104CD000C4684FEA420C06FA0CF7BC438F6807FA27
:104CE0000CF72743C7600C7904F00304022C12D19F
:104CF000D40800EB840CDCF820405707FF0E09FABB
:104D000007F824EA0804D1F8108008FA07F848EAFE
:104D10000408CCF8208004684FEA420C06FA0CF72D
:104D2000BC430F7907F0030707FA0CF72743076026
:104D30004C6814F4403F70D03C4C276847F48047DF
:104D40002760246822F0030704F480440094384C60
:104D500007EB040CDCF8084897074FEA177809FAC4
:104D600008F7BC43334FB84202D1002724E054E097
:104D7000314FB84201D101271EE0304FB84201D176
:104D8000022719E02E4FB84201D1032714E02D4F1E
:104D9000B84201D104270FE02B4FB84201D10527BB
:104DA0000AE02A4FB84201D1062705E0284FB84251
:104DB00001D1072700E0082707FA08F72743CCF8B6
:104DC0000878DAF800405746D1F804C09C435FEAFF
:104DD000CC2C00D51C433C60DBF800405F46D1F88A
:104DE00004C09C435FEA8C2C00D51C433C60DEF879
:104DF00000407746D1F804C09C435FEA8C3C00D564
:104E00001C433C60084F083F3C68D1F804C09C43F9
:104E10005FEACC3C00D51C433C60521C102AFFF4D6
:104E20002FAFBDE8F88F0000083C01404438024035
:104E3000003001400000024000040240000802402F
:104E4000000C024000100240001402400018024012
:104E5000001C02400069084000D0012070474269F0
:104E600021EA02030A4043EA0241816170470AB124
:104E7000816170470904FBE70148806870470000C2
:104E8000E0C00120024881680278114481607047C7
:104E9000E0C001200B4810B5016841F400710160C9
:104EA000016841F480610160016841F48071016032
:104EB000032000F07FF80F2000F006F800F024F83F
:104EC000002010BD003C024070B50D4D04464FF46B
:104ED0007A712878B1FBF0F00A490968B1FBF0F06B
:104EE00000F01AFB48B9102C07D200222146501EB0
:104EF00000F040F800206C6070BD012070BD000023
:104F0000E0C00120ECC001200A4808B5016841F466
:104F100080410160006800F4804000900548001F57
:104F2000016841F080510160006800F080500090FD
:104F300008BD00004438024000280DDB00F01F02CD
:104F4000012191404009800000F1E020C0F880116B
:104F5000BFF34F8FBFF36F8F7047002809DB00F05E
:104F60001F02012191404009800000F1E020C0F8BB
:104F700000117047F0B40E4B1B680C46C3F30223BC
:104F8000C3F10705042D00D90425191D072901D2F5
:104F9000002300E0DB1E012606FA05F1491E214030
:104FA00099409E40761E16403143F0BC04F07AB919
:104FB0000CED00E0064900F0070208684FF6FF0319
:104FC000184040EA0220034A10430860704700007E
:104FD0000CED00E00000FA052DE9F0470E46050053
:104FE00065D0DFF81481D8F80000F7B200F00700B0
:104FF000B04207D288F80070D8F8000000F007002F
:10500000B04254D128683D4C810712D5400703D5E2
:10501000206840F4E05020602878000703D520681D
:1050200040F4604020602068A96820F0F000084348
:1050300020602878C0072DD03049686808390128D9
:1050400012D0022813D0032811D00968890700293B
:105050002DDA216821F0030101432160FFF70CFFE5
:10506000814641F2883A0EE009688903EFE7096852
:105070008901ECE7FFF700FFA0EB0901514502D9D8
:105080000320BDE8F0872068696800F00C00B0EBF1
:10509000810FEFD1D8F80010404601F00701B1426E
:1050A00007D90770006800F00700B04201D0012066
:1050B000E7E72878400705D52068E96820F4E05044
:1050C000084320602878000706D52068296920F465
:1050D000604040EAC100206000F038F82168084ACA
:1050E000C1F30311515CC8400649086006480068D6
:1050F000FFF7EAFE0020C4E7003C02400838024007
:10510000A0C20008ECC00120E4C001200448054909
:1051100000680968044AC1F38221515CC8407047A5
:10512000ECC0012008380240B0C20008044805491C
:1051300000680968044AC1F34231515CC8407047B5
:10514000ECC0012008380240B0C20008154810B574
:10515000006810F00C02144813D04110042A0FD03C
:10516000082A0ED10F4C241F2268236802F03F0248
:105170005B0207D52068C0F38810A0FB010106E0A0
:10518000084610BD2168C1F38811A1FB000100236E
:10519000FBF718F82168C1F30141491C4900B0FB35
:1051A000F1F010BD083802400024F4002DE9F84F5A
:1051B00004006ED02078DFF84C93C007A9F10405F5
:1051C0004AD009F104000168C1F38101012908D026
:1051D0000068C0F3810002280AD1D9F8000040021B
:1051E00006D52868800337D560680028E1D033E011
:1051F0006068B0F5803F10D0B0F5A02F286810D0BF
:1052000020F480302860286820F4802028606068BE
:10521000A8B1FFF731FE06460DE0286840F4803063
:10522000F4E740F480202860F7E700BFFFF724FE92
:10523000801B642873D828688003F7D50CE0FFF73B
:105240001BFE064605E000BFFFF716FE801B642824
:10525000F0D828688003F7D42078DFF8AC82800784
:105260004FF0000A3ED5A748001D016811F00C0F51
:1052700008D00068C0F3810002280BD1D9F80000E3
:10528000400207D42868800716D5E068012800D1BD
:1052900012E033E1E068B8B10120C8F80000FFF780
:1052A000EBFD064605E000BFFFF7E6FD801B022888
:1052B000C0D828688007F7D52868216920F0F80051
:1052C00040EAC10028600DE0C8F800A0FFF7D4FD57
:1052D000064604E0FFF7D0FD801B02281FD828688F
:1052E0008007F7D42078000722D5864F8748616968
:1052F000703771B101210160FFF7BEFD064604E081
:10530000FFF7BAFD801B022809D838688007F7D557
:105310000EE0C0F800A0FFF7AFFD064605E082E012
:10532000FFF7AAFD801B02287DD838688007F7D4D4
:105330002078400768D5DFF8CCB100270BF13C0B93
:10534000DBF80000C0000BD4DBF8001041F0805106
:10535000CBF80010DBF80000012700F0805000902F
:105360006B4E3068C00510D4306840F480703060F7
:10537000FFF782FD009005E0FFF77EFD0099401ADF
:10538000022850D83068C005F6D55E4EA0686C364D
:1053900001280FD00528306810D020F001003060BF
:1053A000306820F004003060A068B8B1FFF764FDF9
:1053B00000900FE0306840F00100F4E740F0040096
:1053C0003060F7E7FFF758FD0099411A41F2883045
:1053D000814266D830688007F4D50EE0FFF74CFDB7
:1053E000009007E0FFF748FD0099411A41F288302C
:1053F000814256D830688007F4D42FB1DBF8001012
:1054000021F08051CBF80010A069C8B33D49091DB7
:105410000968C1F3810102294AD00228504607D009
:10542000C8F8600000E03CE0FFF726FD04463BE0E2
:105430004746C8F86000FFF71FFD064605E000BFBD
:10544000FFF71AFD801B02282BD828688001F7D4AB
:10545000D4E907010843A16A2E4A490802EB014139
:10546000626A41EA8211084394F82C1040EA016113
:10547000C9F8001001203866FFF7FEFC044606E07C
:105480003EE000BFFFF7F8FC001B022809D828689F
:105490008001F7D534E000BFFFF7EEFC001B0228C7
:1054A00002D90320BDE8F88F28688001F4D427E0F2
:1054B0000128F7D0D9F80000E26900F48001914298
:1054C0001CD1226A00F03F01914217D147F6C0710A
:1054D000626A0140B1EB821F10D1A26A4FF0FF3324
:1054E00000F4403103EB5202B1EB024F06D194F8C5
:1054F0002C1000F07060B0EB016F01D00120D1E7FB
:105500000020CFE70438024000004742800E4742A7
:10551000007000400000FFFF10B5401EB0F1807F1A
:1055200001D3012010BD4FF0E02460610F2160170E
:1055300003F0B8FE0020A06107202061002010BD0C
:105540007047704770B590F83C20012A32D0012492
:1055500080F83C40022280F83D2003685A689D682C
:1055600022F070060A6832435A60134B02689A426E
:1055700014D0B2F1804F11D0104B9A420ED0104B84
:105580009A420BD00F4B9A4208D00F4B9A4205D04B
:105590000E4B9A4202D00E4B9A4204D1496825F034
:1055A00080031943916080F83D40002180F83C1051
:1055B000084670BD022070BD00000140000400409C
:1055C00000080040000C0040000401400040014081
:1055D0000018004010B5040003D094F83D0010B14D
:1055E00007E0012010BD002084F83C00204600F0B8
:1055F0001FF8022084F83D00211D206803F0E0FA26
:10560000012084F8460084F83E0084F83F0084F8C6
:10561000400084F8410084F8420084F8430084F894
:10562000440084F8450084F83D00002010BD0000CF
:1056300008B501681048B1F1804F14D00F4A91426B
:1056400019D1016841F0020101600068002200F0F8
:105650000200009011461D20FFF78CFCBDE80840B9
:105660001D20FFF77ABC016841F00101016000686C
:1056700000F00100009008BD4038024000040040E6
:1056800090F83D10012901D001207047022180F8D7
:105690003D1000681149884214D0B0F1804F11D0FC
:1056A0000F4988420ED00F4988420BD00E498842DC
:1056B00008D00E49884205D00D49884202D00D49D4
:1056C000884204D1816801F00701062903D00168EE
:1056D00041F001010160002070470000000001401E
:1056E0000004004000080040000C0040000401409D
:1056F000004001400018004070B5044690F83C009E
:105700000025012817D0012684F83C60022084F887
:105710003D002068826822F0770222F47F42826096
:105720000868502838D00DDC20284FD005DC90B315
:10573000102811D14AE0022070BD302846D0402800
:105740000AD13BE060282FD070280DD0B0F5805FE3
:1057500003D0B0F5005F12D0012584F83D60002031
:1057600084F83C00284670BDCB68D1E9012120684F
:1057700003F08EFA2068816841F0770109E0CB6878
:10578000D1E90121206803F083FA2068816841F49F
:1057900080418160E1E719E0CA684968206803F048
:1057A00089FA5021206806E0CA684968206803F039
:1057B00092FA6021206803F075FACEE7CA6849685A
:1057C000206803F077FA40212068F4E72268014658
:1057D0001046F0E770472DE9F04104460068C668BE
:1057E00005694FF00007A90713D5B10711D5F91EB8
:1057F000016101202077206880698007204602D05F
:10580000FFF7E8FF04E000F07EF8204600F07CF8A7
:105810002777680716D5700714D521686FF0040044
:105820000861022020772068806910F4407F2046BC
:1058300002D0FFF7CFFF04E000F065F8204600F04B
:1058400063F82777280715D5300713D521686FF03F
:1058500008000861042020772068C069800720467E
:1058600002D0FFF7B7FF04E000F04DF8204600F04B
:105870004BF82777E80616D5F00614D521686FF0A7
:1058800010000861082020772068C06910F4407F6C
:10589000204602D0FFF79EFF04E000F034F82046D7
:1058A00000F032F82777E80708D0F00706D0216823
:1058B0006FF001000861204600F027F8280608D59F
:1058C000300606D521686FF0800008612046FFF79A
:1058D00037FE680608D5700606D521686FF04000CF
:1058E0000861204600F012F8A8060AD5B00608D5CF
:1058F00021686FF0200008612046BDE8F041FFF705
:1059000020BEBDE8F0817047704770477047704710
:1059100070470000F8B5016804460868CA684B691A
:1059200010F00F0F4FF0000559D003F0010602F4FC
:105930009077374365D0C10705D0D10503D5616C99
:1059400041F001016164410705D5D90703D0616CBD
:1059500041F002016164810705D5D90703D0616C6C
:1059600041F004016164010707D502F020013143D1
:1059700003D0616C41F008016164616C00293AD088
:10598000800604D5900602D5204603F061FA20680F
:105990004069616CC0F38010090700D460B32046F1
:1059A00003F0B2F920684069400621D52068143020
:1059B00050E8001F21F0400140E80012002AF5D114
:1059C000E06BA8B172490165E06BFEF7F2FD0028BB
:1059D00011D0E06B016D01B0BDE8F04008478306CF
:1059E0000FD593060DD52046BDE8F84003F030BA38
:1059F0002046FFF78DFFF8BD2046FFF789FF65645D
:105A0000F8BD266B2023012E7ED1C6067CD5D60696
:105A10007AD508684868009048694FF00206400649
:105A20004DD5E26B106840684FF480770004000C9D
:105A30003AD0A18D814237D9E085D069B8422DD0C6
:105A400020680C3050E8001F21F4807140E80012FB
:105A5000002AF5D12068143050E8001F21F0010120
:105A600040E80012002AF5D12068143050E8001FE9
:105A700021F0400140E80012002AF5D184F84230BC
:105A8000256320680C3050E8001F21F0100140E829
:105A90000012002AF5D1E06BFEF742FD6663A08D8F
:105AA000E18D401A81B206E0A18D8142A8D1D06972
:105AB000B842A5D166632046FFF729FFF8BDA08D47
:105AC000E18D401A81B2E08D0028F7D00029F5D091
:105AD00020680C3050E8002F22F4907240E8002734
