:020000040800F2
:1000000000A00120A1010008D56C0008415F000894
:1000100009640008ED0C0008C59600080000000007
:10002000000000000000000000000000898F0008B0
:10003000EF0C000800000000476E00088B8F0008DE
:10004000BB010008BB010008BB010008BB010008A0
:10005000BB010008BB010008BB010008BB01000890
:10006000BB010008BB010008BB010008BB01000880
:10007000BB010008BB010008BB010008BB01000870
:10008000BB010008BB010008BB010008BB01000860
:10009000BB010008BB010008BB010008BB01000850
:1000A000BB010008BB010008BB010008BB01000840
:1000B000BB01000855900008BB010008BB01000807
:1000C000BB010008BB010008BB010008BB01000820
:1000D000BB010008E9950008BB010008BB0100084E
:1000E000BB010008BB010008BB010008BB01000800
:1000F000BB010008BB010008BB010008BB010008F0
:10010000BB010008BB010008BB010008BB010008DF
:10011000BB010008BB010008BB010008BB010008CF
:10012000BB010008BB010008BB010008BB010008BF
:10013000BB010008AD100008BB010008BB010008AE
:10014000BB010008BB010008BB010008BB0100089F
:10015000BB010008BB010008BB010008BB0100088F
:10016000BB010008BB010008BB010008BB0100087F
:10017000BB010008BB010008BB0100080000000033
:10018000BB010008BB010008DFF810D000F036FB0F
:100190000048004731C20008AFF3008000A00120F2
:1001A0000648804706480047FEE7FEE7FEE7FEE711
:1001B000FEE7FEE7FEE7FEE7FEE7FEE74590000804
:1001C000890100082DE9F05F0546002092469B4614
:1001D00088460646814640241BE02846414647465D
:1001E000224600F0BCF853465A46C01A914110D33B
:1001F00011461846224600F0A3F82D1A67EB0108B5
:100200004F4622460120002100F09AF817EB000922
:100210004E41201EA4F10104DFDC484631462A4647
:100220004346BDE8F09F40EA01039B0703D009E085
:1002300008C9121F08C0042AFAD203E011F8013BD2
:1002400000F8013B521EF9D27047D2B201E000F82B
:10025000012B491EFBD270470022F6E710B513466A
:100260000A4604461946FFF7F0FF204610BD421C1F
:1002700010F8011B0029FBD1801A704710B500222D
:1002800000E0521C835C8C5CA34201D1002BF8D1AE
:10029000D8B2E1B2401A10BD30B505460020034681
:1002A00000E05B1C934205D2EC5CC85C201A01D1D3
:1002B000002CF6D130BD00F0004230F000400AD0F2
:1002C000C10D01F56071C0F3160042EA0151C20888
:1002D00040071143704700200146704701F000437A
:1002E00030B421F0004150EA010206D00A0DA2F517
:1002F0006072C1F31301002A02DC30BC0020704799
:10030000440F44EAC104C100E01830BC00EBC25005
:1003100000F084B830B50B460146002020220124AD
:1003200009E021FA02F59D4205D303FA02F5491BC3
:1003300004FA02F52844151EA2F10102F1DC30BDD9
:10034000202A04DB203A00FA02F100207047914095
:10035000C2F1200320FA03F3194390407047202A8A
:1003600004DB203A21FA02F00021704721FA02F35F
:10037000D040C2F120029140084319467047000066
:100380000FB4002300B589B00CA900910B996FF050
:100390000042CB601E4B06931E4B07930423CDE90E
:1003A00001321D4A089202466B46002000F0E4FA32
:1003B00009B05DF814FB70B586B006464FF0FF300B
:1003C0000091CDE90101002015460C46049032460B
:1003D000694604A8FFF7D4FF02460498211825B106
:1003E00008B1084600E020462860049800280DD097
:1003F000002A02DD0098884208D0081B0094CDE94D
:1004000001043246694604A8FFF7BAFF06B070BD82
:10041000B10B0008CF0B0008450800080029A8BF51
:100420007047401C490008BF20F00100704710B41D
:10043000B0FA80FC00FA0CF050EA010404BF10BCD2
:10044000704749B1CCF1200421FA04F411FA0CF1FF
:1004500018BF012121430843A3EB0C01CB1D4FEA38
:1004600000614FEA102042BF002010BC704700EB33
:10047000C35010440029A4BF10BC7047401C490061
:1004800008BF20F0010010BC70472DE9FE4F8046E8
:1004900081EA0300C00F0C46009021F0004123F0D8
:1004A0000045B8EB0200A94105D2404621469046DE
:1004B0001C460B46024623F00040104347D0270D50
:1004C000C7F30A00C3F30A510290401A0190402872
:1004D0006BDAC3F3130040F4801B0098924620B1FE
:1004E0000023D2EB030A63EB0B0B01985946C0F1D2
:1004F00040025046FFF724FF06460D465046594637
:10050000019A00F08DF910EB08006141002487EAA0
:10051000115284EAE7731A4340D0009A62B3019AF9
:10052000012A4FEA075215DC001B61EB02014FF074
:10053000004202EA0752CDE90042001C41F5801159
:1005400032462B4600F063FB03B0BDE8F08F404617
:100550002146F9E7001B61EB0201001C41F5801305
:1005600000185B412018A2F5001747EB030140EA91
:10057000D570B6196D4111E06D084FEA360645EAAF
:10058000C0754FEA0752001B61EB0201001C41F5E8
:10059000801149084FEA30000019514132462B467C
:1005A00003B0BDE8F04F00F023BB009801224000EB
:1005B0000023D0EB020263EBE073009821464FEA80
:1005C000E074B8EB000061EB0401E9E783F000435D
:1005D0005BE781F0004158E72DE9FE4F81EA030413
:1005E00004F0004421F0004100944FF0000B23F090
:1005F000004350EA01045ED052EA03045BD0C3F327
:100600000A54C1F30A552C44A4F2F3340194A0FB1C
:100610000254C1F3130141F48011C3F3130343F4F3
:10062000801301FB024400FB034E840A970A44EA4C
:10063000815447EA8357A4FB076802958D0A05FB9E
:1006400007854FEA932C04FB0C542705029D4FEAC3
:10065000065847EA1637B5EB08056EEB070C870E10
:10066000920E47EA811742EA8312A7FB0201B6EB1A
:100670000B0164EB00042B0D43EA0C335E1844EBD2
:100680001C50DA465146E7FB0201C5F313044FEA5A
:100690000B3343EA14534FEA0432019C43EA060346
:1006A000A4F10C040294009CCDE900B400F0AFFA70
:1006B00003B0BDE8F08F00200146F9E72DE9F04DC9
:1006C00081EA030404F0004B21F0004514464FF08A
:1006D000000A23F0004150EA050220D054EA01024A
:1006E0001DD0C5F30A570246C5F31303C1F3130027
:1006F000C1F30A5640F4801543F48013A7EB0608B3
:10070000101BD64608F2FD3873EB050002D308F142
:10071000010801E092185B41B8F1000F03DA0020F4
:100720000146BDE8F08D00204FF480110646844656
:100730000EE0171B73EB050705D3121B63EB0503D4
:1007400006434CEA010C49084FEA300092185B411D
:1007500050EA0107EDD152EA030012D082EA040008
:1007600083EA0501084305D0101BAB4106D20122E4
:10077000002306E000224FF0004302E06FF0010288
:1007800053101AEB06004CEB085110EB0A0041EB3A
:100790000B01BDE8F04D00F02BBAC1F30A52C1F3D2
:1007A000130140F2FF3341F480119A4202DA002033
:1007B0000146704740F233439A42A2F2334202DCD0
:1007C0005242FFF7CCBDFFF7BBBD000030B5041EA1
:1007D00071F1000404DB4FF00044404264EB01017E
:1007E000141E73F1000405DB1C464FF00043524217
:1007F00063EB0403994208BF904230BD064C074D9D
:1008000006E0E06840F0010394E8070098471034E0
:10081000AC42F6D3FFF7BCFC6CCB00089CCB0008C5
:10082000202A06DBCB17203A41FA02F043EAE073B4
:1008300006E041FA02F3D040C2F1200291400843A1
:1008400019467047C0B24FF4F05100F02FBA0000C3
:100850002DE9FF4F087883B09946FF2805D0491C41
:100860002D2804D00024002008E000200BE0012403
:10087000F9E700EB800003EB4000491C0B78FF2BED
:10088000F7D104B1404200230293147819461D4663
:100890002D2C01D02B2C04D1521C2D2C13D0002434
:1008A0000294AA461478FF2C0FD00A25A3FB0578E2
:1008B00001FB05814FF0000C03FB0C11521CE319E6
:1008C0004AEB0101EEE70124EAE7814453EA010023
:1008D00002D019F5C87F06DA03980021C0E900119B
:1008E00007B0BDE8F08F0025AE4E2F46DFF8B88286
:1008F000184600F0EFF9CDE90001B9F1000002DA85
:10090000C9F1000400E004460023A74A1AEB030BD8
:1009100042EB045A12E0E00707D02A463346384635
:100920004146FFF759FE074688462A463346104699
:100930001946FFF751FE05460E466410002CEAD119
:10094000DDE90001B9F1000F5A46534606DAFFF718
:10095000B5FE3A464346FFF7B1FE05E0FFF73CFE21
:100960003A464346FFF738FE029A0AB181F0004149
:10097000039AC2E90001B3E72DE9FF4F1F468DB08E
:10098000D7E901464FF0FF382E2045464FF00009C9
:100990000B90B9696D1C0E988847396A8246884762
:1009A0000028F6D1BAF1FF3F0AD024F4D064002E1B
:1009B00011DDBAF12B0F08D0BAF12D0F0BD102E0E7
:1009C000404611B08DE744F48064B9696D1C0E98FF
:1009D00088478246761E6946600501D52D2000E0D5
:1009E0002B208DF8000001F1010B0DF1200809E02A
:1009F000B9696D1C0E98884782460F9844F40074BC
:100A0000761E0560002E02DDBAF1300FF0D00B9992
:100A10008A453ED144F0800406E00F99681CA9F194
:100A2000010944F400740860B9696D1C761E0E98C3
:100A3000884782463028F0D02BE00B998A4505D1B3
:100A4000200603D444F08004761E18E0504608F0D7
:100A500085FF08B30DF11301761E44F400748B4535
:100A600008D2AAF130000BF8010B200607D5A9F136
:100A7000010003E0200602D409F101008146A0052F
:100A800002D50F99681C0860B9696D1C0E988847DB
:100A90008246002ED1DC53E0002E51DDBAF1650F05
:100AA00002D0BAF1450F4BD1A00549D5B9696D1CEB
:100AB00024F44074761E0E9888478246002E0CDD82
:100AC0002B2804D0BAF12D0F07D144F48074B969F2
:100AD0006D1C0E9888478246761EE00501D52D21B3
:100AE00000E02B2108F8011BCDF82C8021E00DF14E
:100AF0002901761E44F4007488450CD2AAF1300016
:100B000010F0FF0088F8000002D10B99884509D940
:100B100008F1010806E0E00501D5244801E042F2B1
:100B20000F708146B9696D1C0E98884782460F98F0
:100B30000560002E04DD504608F010FF0028D6D1D5
:100B4000F9690E988847FF208BF8000088F80000AC
:100B50000020069007904B466A4608A906A8FFF7B2
:100B600077FEA00502D46FF001002AE714F0240FED
:100B70000AD0E00714D1DDE906123868031D3B6096
:100B80000068C0E900120BE0DDE90601FFF7A6FBF3
:100B90000146E00704D13868021D3A600068016030
:100BA00028460EE7000014400000F03FF1D8FFFF98
:100BB000426842B1016811F8013B23B1521EC0E9FD
:100BC0000012184670470121C160881E70474268B4
:100BD0005AB1C368016843B983688B4205D0491E86
:100BE000521CC0E90012002070474FF0FF307047E0
:100BF00010B5141E73F1000408DA401C41F1000125
:100C000092185B411A4301D120F0010010BD2DE97B
:100C1000F04D92469B4611B1B1FA81F202E0B0FA72
:100C200080F220329046FFF78BFB04460F4640EAE5
:100C30000A0041EA0B0153465A46084313D01146B5
:100C400053EA010019D0C8F140025046FFF787FB74
:100C500005460E46504659464246FFF771FB08438B
:100C600005D0012004E020463946BDE8F08D002083
:100C7000054346EAE0762C4337430A986305E40AC5
:100C8000A0EB08000022FD0A44EA47540A3002D5CE
:100C900000200146E9E7010510196941DDE9084531
:100CA00000196941BDE8F04DA2E700007F2801D995
:100CB000002208E0064A02EB5002C007127800D179
:100CC000120902F00F020120904008407047000016
:100CD00064C700080EB540F2334202920022CDE90B
:100CE00000221346FFF793FF03B000BDFEE77047F5
:100CF00030B5A9B056A008F08FFB56A008F08CFBC9
:100D00005DA008F089FB0020089044F6206008A947
:100D100002230022CDE900101146604809F02DFCA5
:100D200085B29DF8200000909DF821302A465CA1F4
:100D300009A808F0F3FC09A808F06EFB60A008F011
:100D40006BFB6A4903C9CDE90601002421E00020BC
:100D5000039044F6206003A9CDE9001006A830F8FE
:100D60001410022300224D4809F01DFC85B2BDF885
:100D70000C00009006A830F814202B465CA109A8AE
:100D800008F0CCFC09A808F047FB0A2003F040FD5E
:100D9000641C042CDBDB61A008F03EFB41F2010087
:100DA000059044F6206005A902231022CDE9001029
:100DB00000213A4809F0D6FB85B22A4661A109A86C
:100DC00008F0ACFC09A808F027FB0A2003F020FD7E
:100DD0000020049044F6206004A902231022CDE9EB
:100DE000001041F201012D4809F0DDFB85B2BDF88C
:100DF00010302A465EA109A808F090FC09A808F066
:100E00000BFB64A008F008FB69486AA1D0F86025D4
:100E100009A808F083FC09A808F0FEFA644869A153
:100E2000D0F8642509A808F079FC09A808F0F4FABC
:100E30005F4868A1D0F8682509A808F06FFC09A8E8
:100E400008F0EAFA68A008F0E7FA29B030BD00001F
:100E5000000000003D3D3D204574686572434154EB
:100E6000204672616D6520446961676E6F736973B6
:100E7000203D3D3D000000005465737420313A2050
:100E800042524420455343205479706520283078DD
:100E900030303030292E2E2E00000000941A012010
:100EA000202042524420574B433D25642C2044616E
:100EB00074613D30782530325825303258000000BA
:100EC0005465737420323A20465052442077697436
:100ED0006820646966666572656E74206164647218
:100EE00065737365732E2E2E0000000038C700084E
:100EF00020204650524420616464723D3078253091
:100F000034583A20574B433D25642C204553435FCA
:100F1000547970653D3078253034580054657374C9
:100F200020333A20436F6E6669677572652073746B
:100F30006174696F6E20616464726573732E2E2E06
:100F40000000000020204150575220574B433D25C0
:100F500064202873686F756C642062652031206995
:100F600066207375636365737366756C2900000092
:100F7000202046505244207665726966793A20579F
:100F80004B433D25642C20416464723D307825300C
:100F9000345800005465737420343A20506F7274D2
:100FA00020737461746973746963732E2E2E00004C
:100FB000947A012020205458206572726F72733A1F
:100FC0002025640020205258206572726F72733A97
:100FD0002025640020205061636B657420636F7569
:100FE0006E743A20256400003D3D3D2044696167F0
:100FF0006E6F73697320436F6D706C657465203D0F
:101000003D3D0000F0B500231A464FF0004500BFFB
:10101000016903EB830401EBC4010A604A608A6042
:10102000CA600A620D604A62466946F480464E60B4
:101030004E6826F000464E6000EB8306032BB16439
:1010400005D22827066907EBC404344400E004698C
:10105000CC605B1C042BDBD3C26502668266C26671
:1010600082650169006800F58050C160F0BD38B547
:101070000446006800F58050816941F48011816167
:10108000206800F5805080690090012003F0C0FBCB
:101090002068009900F58050816138BD10B50120AD
:1010A00005F01AFEC0F3800010BD0000014803F0F7
:1010B000FFBB00003CDB012070B5A4B0012500247B
:1010C00006468DF828408DF804501494A8038DF836
:1010D000564005908DF8105002948DF80E508DF802
:1010E0005440C0108DF811508DF81F408DF82040ED
:1010F00006908DF81E508DF80F4009948DF81C4015
:1011000012948DF84C408DF855406946304600F0F9
:1011100083F88DF881508DF880408DF88240280446
:101120001B908DF8685080011F908DF870508DF8DD
:10113000885040128DF871501E941D908DF8725099
:10114000239421948DF8895019A93046199400F000
:1011500003F824B070BD000070B50C460168054668
:1011600001F5805188692B4A1040227BEAB30022A6
:10117000637B920642EA4362637FBBB35FF0000386
:1011800042EA0352A37B42EA435263691A43237F34
:1011900042EAC312A37F42EA8312236A1A4394F8F5
:1011A000243042EA830202438A61286800F58050B5
:1011B0008669012003F02CFB286800F580508661C9
:1011C000A169A06822790843216941EA4261084384
:1011D00094F8251040EAC110A16A40EA8100216814
:1011E000084340F40001286801E00FE010E000F53A
:1011F00080500160286800F580500468012003F0E9
:1012000007FB286800F58050046070BD0122AFE73D
:101210000123B5E7233FDEF870B5026805460C46AA
:1012200010683C49A37B0840A16841EA4361237CE4
:10123000002B64D00023667CDB05002E61D00026E5
:1012400043EA86531943E37F41EA03416369194343
:10125000A37FEBB35FF0000341EA4331237F41EA10
:101260000331A3691943237941EA832194F820309B
:101270007BB3002341EA4321E37B41EAC311636A64
:10128000194394F8283041EA03110143116028689A
:101290000668012003F0BCFA286806602A68906995
:1012A0004FF641710840A36C216D41EA034194F867
:1012B0004C3063B3002394F85560DB01012E00D05D
:1012C000002643EAC603194394F85630012B01E087
:1012D00019E01AE000D0002341EA830194F8543069
:1012E000012B00D0002341EA4301014391612868AA
:1012F0008469012003F08CFA2868846170BD0123A1
:1013000099E701269CE70123A6E70123B2E7012321
:10131000D1E700000F8120FD2DE9F84304460020AD
:101320000090A56E4FF0010804EB8500E76E866C17
:101330001EE0306A30B9684603F06EFC009880B356
:101340003062B060B8F1000F12D0A06D0028606963
:101350002BD040F480407060306840F00040306036
:101360006D1C042D00D32D1F04EB85007F1E866CA1
:1013700017B1B8F1000FDCD1E06EB8420FD0E81C15
:1013800000F00300BFF35F8F216900EB800001EBE9
:10139000C001206800F580508160C4E91A57BDE89B
:1013A000F883FFE74FF00008E2E701490843D2E77E
:1013B0000040008072B600BFFEE700002DE9F04358
:1013C0002DED048BA7B003F073FE0546D8480068E6
:1013D000281A022804D227B0BDEC048BBDE8F083A4
:1013E000D3480560D3480068401CD2490860D24801
:1013F000007800B9EFE7D148406818B9CF48C06815
:1014000000B9E8E7CE480068002815DDCD4800683F
:10141000801CCC490860CC48007830B90120CA490A
:1014200008704FF47A70C7490860C6480068C74919
:10143000A0FB0101C64A03C204F0E8FFC5480068EA
:10144000401CC44908600846006864285DD3002039
:101450000860012755E0C7EBC70000EB8710BE49C5
:1014600001EB8000B0F8048000202590269044F61F
:10147000206025A908234FF40162CDE90010414600
:10148000B64809F090F89DF89A0000F0010088B97C
:101490009DF89A0040F001008DF89A0044F6206013
:1014A00025A908234FF40162CDE900104146AB485D
:1014B00009F084F800202390249044F6206023A9AA
:1014C000082340F61802CDE900104146A34809F070
:1014D0006AF89DF8920000F0010088B99DF892002A
:1014E00040F001008DF8920044F6206023A9082303
:1014F00040F61802CDE900104146984809F05EF820
:101500007F1C8F4800688742A5DD8C48806848B101
:101510008A48406830B1894A90685168BFF34F8F5C
:1015200000BF00BF00268548806810B109F00AF8A6
:1015300006464FF4FA7008F0F9FF044688490C603B
:1015400088480068401C874908600846006840F6E3
:10155000C411884264D30020824908607748C0687B
:101560007649496833462246CDE900107EA107A896
:1015700008F0D4F807A807F04FFF7048007D40B18D
:10158000734885A10CC807A808F0C8F807A807F099
:1015900043FF6A488068F8B168484068E0B167482E
:1015A00080684079654989680979644A9268D27887
:1015B000624B9B689B78CDE90032CDE902105F4811
:1015C000806843785D48806802787AA107A808F0AF
:1015D000A5F807A807F020FF58480069F8B1574858
:1015E000C068E0B1554800694079544909690979F2
:1015F000524A1269D278514B1B699B78CDE900326F
:10160000CDE902104D48006943784C4800690278E2
:1016100075A107A808F082F807A807F0FDFE00BF33
:101620004648006948B14548C06830B1434A10692E
:10163000D168BFF34F8F00BF00BF78480068401CDF
:10164000764908600846006864280DD300200860C9
:1016500008F066FF4048B0F81C01082801D10120BD
:1016600000E000206E4908706E480068401C6D491B
:10167000086008460068B0F5FA7F57D3002008607C
:101680002F480068002851DD6748006800EE100A06
:10169000B8EEC00ADFED650A20EE200ADFED640A2D
:1016A00080EE201A11EE107A6248006800EE100AEF
:1016B000B8EEC00ADFED5D0A20EE200ADFED5C0A1D
:1016C00080EE201A11EE109A002006901B48006947
:1016D00038B11A48C068022803D318480069008846
:1016E00006905548007802F0DBFF80464846FEF73A
:1016F000E2FD41EC180B3846FEF7DDFD41EC190B1D
:10170000174800684D490988BDF81820CDE90282C4
:10171000CDE904108DED008B53EC192B48A107A8DF
:1017200007F0FCFF07A807F077FE00BF00BF52E6F6
:10173000A0C00120B0C0012023C0012000F600207D
:1017400010C00120B4C00120B8C0012040420F00E9
:1017500008C10120BCC0012020180020941A0120DB
:10176000ACC00120C0C001205B44656275675D208C
:10177000574B433D25642C2073656E643D25642CD6
:10178000204F62797465733D25642C204962797419
:1017900065733D25640000005B44656275675D20EC
:1017A00044432074696D653A20256C6C64206E7327
:1017B000000000005B44656275675D204F757470C2
:1017C000757420646174613A2025303258202530C8
:1017D00032582025303258202530325820253032DA
:1017E00058202530325800005B44656275675D20E3
:1017F000496E70757420646174613A2025303258E6
:1018000020253032582025303258202530325820BB
:10181000253032582025303258000000A4C0012065
:1018200024C00120A8C0012034C001200000B4431E
:101830000000CA4C30C001203EC001203AC0012047
:101840005B5374617475735D20506F733A252E324B
:10185000662056656C3A252E326620257320535734
:101860003A3078253034582043573A307825303490
:101870005820574B433A25640000000010B5E8B0EB
:101880008BA007F0C9FD8BA007F0C6FDFFF706FC93
:1018900000280FD18FA007F0BFFD96A007F0BCFD78
:1018A00096A007F0B9FD9FA007F0B6FDA4A007F031
:1018B000B3FD02E0AAA007F0AFFDAEA007F0ACFDBB
:1018C0000020479066E046AB0222B148479903F0FA
:1018D0006BF945AB0322AE48479903F065F944AB79
:1018E0000122AB48479903F05FF943AB1F22A84898
:1018F000479903F059F9439881B2449880B2459AC8
:1019000092B2CDE900200291469880B203461E9023
:10191000A0A148A8479A07F001FF48A807F07CFD5E
:101920004698002833D04FF6FF71469888422ED053
:10193000A6A148A8479A07F0F1FE48A807F06CFD59
:101940004398C0F382001E901E98012806D00228FA
:101950000AD0052805D006280CD108E0A3A01D90C8
:101960000BE0A5A01D9008E0A6A01D9005E0A9A091
:101970001D9002E0ABA01D9000BF00BFABA148A826
:101980001D9A07F0CBFE48A807F046FD00BF479818
:10199000401C47904798012895DDA848A8A10268F7
:1019A00048A807F0BBFE48A807F036FDABA007F03B
:1019B00033FDB048007850B1AFA007F02DFD08F01E
:1019C00085FD0020AB490870642002F021FFB3A020
:1019D00008F090FD30B9B3A007F01EFD4FF0FF30C6
:1019E00068B010BDB5A007F017FDB9A007F014FD51
:1019F000BDA007F011FDC6A007F00EFDCB480068A2
:101A0000406A42900A2002F003FFC8480068406A1A
:101A10004190C7A148A8419B429A07F07FFE48A881
:101A200007F0FAFCCBA007F0F7FC002040904FF441
:101A3000FA6040A902230022CDE9001041F2010121
:101A4000CD4808F0B0FD3F90BDF80031CBA148A8CB
:101A50003F9A07F063FE48A807F0DEFCD2A007F02B
:101A6000DBFC002008F038FDDD490860DDA007F050
:101A7000D3FCDB480268E2A148A807F04FFE48A863
:101A800007F0CAFCD6480068002810DDE1A007F086
:101A9000C3FCE9A007F0C0FC4FF47A7002F0B8FE76
:101AA000ECA007F0B9FCF0A007F0B6FCEEE1F7E11E
:101AB000000000003D3D3D2045746865724341547F
:101AC00020496E697469616C697A6174696F6E200E
:101AD0003D3D3D005761726E696E673A20457468FE
:101AE00065726E6574206C696E6B20697320444F5B
:101AF000574E2100436865636B3A00002020312E69
:101B0000205573652043524F53534F56455220631F
:101B100061626C6520286E6F7420737472616967EE
:101B2000687429002020322E204D6F746F72206956
:101B30007320706F7765726564206F6E000000001F
:101B40002020332E204361626C6520697320666912
:101B5000726D6C7920636F6E6E65637465640000EE
:101B600045746865726E6574206C696E6B2069736C
:101B70002055500052656164696E672050485920B5
:101B80007265676973746572732E2E2E00000000F3
:101B90003CDB01205048595B25645D3A20494431C3
:101BA0003D307825303458204944323D3078253056
:101BB0003458204253523D30782530345820534316
:101BC00053523D30782530345800000020202D3EFF
:101BD000205048592064657465637465642061749D
:101BE00020616464726573732025640031304D6236
:101BF00070732048616C660031304D62707320460E
:101C0000756C6C003130304D6270732048616C66C9
:101C1000000000003130304D6270732046756C6CEE
:101C200000000000556E6B6E6F776E0020202D3E19
:101C3000204C696E6B3A202573000000D0C0012053
:101C400043757272656E7420504859204164647205
:101C50006573733A20256C7500000000496E697445
:101C600069616C697A696E6720534F454D2E2E2E3F
:101C70000000000023C001202020436C6F73696EB8
:101C8000672070726576696F757320534F454D20DC
:101C9000696E7374616E63652E2E2E0065746830F4
:101CA000000000004552524F523A2065635F696E52
:101CB0006974206661696C6564210000534F454D6D
:101CC00020696E697469616C697A6564204F4B00A4
:101CD0005363616E6E696E6720666F7220736C610C
:101CE0007665732E2E2E00002020284D616B652016
:101CF0007375726520746F207573652043524F535E
:101D0000534F564552206361626C652129000000E3
:101D1000202043616C6C696E672065635F636F6E42
:101D20006669675F696E69742E2E2E00ECDB0120F8
:101D3000202054494D3220636865636B3A20626508
:101D4000666F72653D256C752C2061667465723D09
:101D5000256C7500202054657374696E67206E656C
:101D600074776F726B20636F6D6D756E69636174EC
:101D7000696F6E2E2E2E0000941A012020205465CB
:101D800073742072656164204553432074797065D3
:101D90003A20776B633D25642C20646174613D308B
:101DA0007825303458000000202053746172746923
:101DB0006E672065635F636F6E6669675F696E69F2
:101DC0007420776974682074696D656F757420700C
:101DD000726F74656374696F6E2E2E2E00000000A2
:101DE00010C00120202065635F636F6E6669675FC6
:101DF000696E69742072657475726E6564000000A6
:101E0000466F756E6420256420736C617665287357
:101E10002900000057616974696E6720666F72203F
:101E2000736C61766520746F2073746162696C698C
:101E30007A652E2E2E000000202053746172746982
:101E40006E6720313030306D732064656C61792E9F
:101E50002E2E00002020313030306D732064656CF0
:101E6000617920646F6E65004164646974696F6EA6
:101E7000616C2064656C617920666F722045534304
:101E800020696E69742E2E2E00000000D7A007F086
:101E9000C3FA4FF4FA7002F0BBFCDBA007F0BCFA07
:101EA000DE480068012816DADDA007F0B5FAE2A0E6
:101EB00007F0B2FAE5A007F0AFFAEDA007F0ACFA30
:101EC000F7A007F0A9FAFEA007F0A6FA08F0FEFABC
:101ED0004FF0FF3084E50120479072E04798C0EB57
:101EE000C00101EB8010FE4901EB8000C0684799FA
:101EF000C1EBC10202EB8111F94A02EB8101896851
:101F0000CDE900104798C0EBC00101EB80101146ED
:101F100001EB8000F13003461B90F2A148A8479ADC
:101F200007F0FCFB48A807F077FA00214798C0EBC0
:101F3000C00202EB8010EA4A02EB800080F8C41075
:101F40004798C0EBC00101EB8010114601EB800007
:101F500090F8C4000246EBA11B9048A807F0DEFBF6
:101F600048A807F059FA4798C0EBC00101EB801070
:101F7000DB4901EB800080881E9000201D904FF40B
:101F8000FA601DA902230022CDE90010E6481E993F
:101F900008F009FB1C901C9830B9E4A007F03CFA4B
:101FA000EAA007F039FA09E0BDF87420F3A148A8C7
:101FB0001C9B07F0B3FB48A807F02EFA4798401C7B
:101FC0004790964947980968884287DDF2A007F054
:101FD00023FA01204790F9E04798C0EBC00101EBDC
:101FE0008010BF4901EB800080881E9000201C906B
:101FF0001D901A901B9044F620601CA908231A0219
:10200000CDE90010C8481E9908F0CDFA44F62060CA
:102010001AA9082340F60802CDE90010C2481E990B
:1020200008F0C1FA9DF877109DF876009DF87520AC
:102030009DF87430CDE90232CDE904019DF87300BA
:102040009DF87210CDE900109DF8710019909DF86F
:10205000700018900246DE4948A8199B07F05EFB05
:1020600048A807F0D9F99DF86F109DF86E009DF80B
:102070006D209DF86C30CDE90232CDE904019DF868
:102080006B009DF86A10CDE900109DF86900199069
:102090009DF8680018900246CE4948A8199B07F0A1
:1020A0003DFB48A807F0B8F94798C0EBC00101EB29
:1020B00080108B4901EB80001C9940F8391F1D9955
:1020C00041604798C0EBC00101EB8010844901EBEF
:1020D000800039301A9981601B99C1609DF87000A9
:1020E0009DF8711040EA01214798C0EBC00202EB55
:1020F00080107B4A02EB8000A0F8BC109DF87200B3
:102100009DF8731040EA01214798C0EBC00202EB32
:102110008010734A02EB8000A0F8BA109DF86800A6
:102120009DF8691040EA01214798C0EBC00202EB1C
:1021300080106B4A02EB8000A0F8C0109DF86A0086
:102140009DF86B1040EA01214798C0EBC00202EBFA
:102150008010634A02EB8000A0F8BE104798C0EBE5
:10216000C00101EB8010114601EB8000B0F8BE0009
:102170004799C1EBC10202EB8111594A02EB81017F
:10218000B1F8C010CDE900104798C0EBC00101EBD9
:102190008010114601EB8000B0F8BA001990479802
:1021A000C0EBC00101EB8010114601EB8000B0F8DC
:1021B000BC001890024688A148A8199B07F0AEFA07
:1021C00048A807F029F94798401C479013494798B9
:1021D000096888427FF700AF8BA007F01DF9022045
:1021E0003F490880002008F0B7F91BE12020537414
:1021F000617274696E67203530306D732064656C70
:1022000061792E2E2E00000020203530306D732095
:1022100064656C617920646F6E65000010C00120F8
:102220004552524F523A204E6F20736C617665735F
:1022300020666F756E64210054726F75626C6573F1
:10224000686F6F74696E673A000000002020312EBD
:10225000205573652043524F53534F5645522065C6
:10226000746865726E6574206361626C650000005D
:102270002020322E20436865636B206D6F746F726F
:1022800020697320706F776572656420616E6420C9
:10229000696E20626F6F7420737461746500000052
:1022A0002020332E2054727920726573657474690E
:1022B0006E67206D6F746F7220706F7765720000AB
:1022C0002020342E20436865636B206361626C6557
:1022D00020636F6E6E656374696F6E73000000003B
:1022E00020180020536C6176652025643A20257300
:1022F00020283078253038583A3078253038582919
:102300000000000020204D61696C626F7820636FCF
:10231000756E74657220696E697469616C697A653D
:102320006420746F20256400941A012020205741F6
:10233000524E494E473A20455343206E6F742072E7
:102340006573706F6E64696E67210000202055739D
:10235000652027646961672720636F6D6D616E6416
:1023600020666F722064657461696C6564206469BD
:1023700061676E6F7369732E000000002020455363
:102380004320547970653D307825303458202857E3
:102390004B433D25642900005573696E67206175C4
:1023A000746F6D61746963206D61696C626F782010
:1023B000636F6E66696775726174696F6E206672AD
:1023C0006F6D20454550524F4D2E2E2E00000000BF
:1023D0002CC8000874C8000820204D61696C626F29
:1023E000783A20574F3D3078253034582C204C3DDA
:1023F00025642C20524F3D3078253034582C205203
:102400004C3D256400000000526571756573746968
:102410006E67205052455F4F502073746174652E73
:102420002E2E00004FF4FA703E9000203D900BE0FD
:1024300008F076F8FA48B0F81C01022801D1012012
:102440003D900A2002F0E4F93E98411E3E9110B101
:102450003D980028ECD008F063F8F148B0F81C0172
:102460003C90EF48B0F81E013B90EEA148A8DDE992
:102470003B3207F053F948A806F0CEFF3D9840B133
:102480003C9800F00F00022803D1F0A006F0C4FF32
:1024900011E0F7A148A83C9A07F040F948A806F0D7
:1024A000BBFF3B9838B1FCA148A83B9A07F036F92E
:1024B00048A806F0B1FFFEA006F0AEFF012047904D
:1024C0002AE34798C0EBC00101EB8010D44901EB2F
:1024D000800080881E9000201C901D901A901B90F8
:1024E00044F620601CA908231A02CDE90010FC481C
:1024F0001E9908F058F844F620601AA9082340F6FF
:102500000802CDE90010F6481E9908F04CF89DF835
:1025100077209DF876009DF875109DF87430CDE910
:102520000231CDE904029DF873009DF87210CDE9E7
:1025300000109DF8710008909DF870000790024609
:10254000E8A148A8089B07F0E9F848A806F064FF4E
:102550009DF86F009DF86E109DF86D209DF86C3011
:10256000CDE90232CDE904109DF86B009DF86A10A8
:10257000CDE900109DF8690008909DF8680007906B
:102580000246E8A148A8089B07F0C8F848A806F04A
:1025900043FF9DF870009DF8711040EA01201990EA
:1025A0009DF872009DF8731040EA012018909DF884
:1025B00068009DF8691040EA012017909DF86A00B4
:1025C0009DF86B1040EA01201690DDE91610CDE968
:1025D0000001E4A148A8DDE9183207F09FF848A8F7
:1025E00006F01AFF4798C0EBC00101EB80108C4940
:1025F00001EB8000B0F8BE004799C1EBC10202EBCD
:102600008111874A02EB8101B1F8C010CDE90010B9
:102610004798C0EBC00101EB8010114601EB800030
:10262000B0F8BA0008904798C0EBC00101EB8011E8
:10263000104600EB8100B0F8BC0007900246D8A11C
:1026400048A8089B07F06AF848A806F0E5FE4798F6
:10265000C0EBC00101EB8010714901EB8000B0F8C4
:10266000BA00002865D1DDA006F0D6FE4FF48051F7
:102670004798C0EBC00202EB8010694A02EB800071
:10268000A0F8BC1080214798C0EBC00202EB80107C
:10269000634A02EB8000A0F8BA104FF484514798C7
:1026A000C0EBC00202EB80105D4A02EB8000A0F894
:1026B000C01080214798C0EBC00202EB801258483E
:1026C00000EB8200A0F8BE104798C0EBC00101EB00
:1026D0008011534800EB8100B0F8BE004799C1EB70
:1026E000C10202EB81124E4901EB8201B1F8C01028
:1026F000CDE900104798C0EBC00101EB80114848BC
:1027000000EB8100B0F8BA0008904798C0EBC00118
:1027100001EB8010424901EB8000B0F8BC0007904B
:102720000246BE4948A8089B06F0F8FF48A806F0F4
:1027300073FE4798C0EBC00101EB8011384800EBF5
:1027400081011C9841F8390F1D9848604798C0EBEB
:10275000C00101EB8010324901EB800039301A9939
:1027600081601B99C16001214798C0EBC00202EB58
:1027700080102B4A02EB800080F83110022147982C
:10278000C0EBC00202EB8010254A02EB800080F80B
:102790003210A3A006F040FEABA105C9CDE914029A
:1027A00044F6206014A908231A02CDE900104C4811
:1027B0001E9907F003FF1390A5A148A8139A06F0ED
:1027C000ADFF48A806F028FEA8A105C9CDE9110271
:1027D00044F6206111A8082340F60802CDE9000163
:1027E0003F481E9907F0EAFE1090A2A148A8109A4F
:1027F00006F094FF48A806F00FFE0A2002F008F841
:1028000044F620600EA908231A02CDE900103448CE
:102810001E9907F0C8FE44F620600CA9082337E192
:10282000201800202020414C205374617475733AA5
:10283000203078253034582C20414C20436F64657B
:102840003A20307825303458000000005052455F5F
:102850004F502073746174652072656163686564AC
:10286000207375636365737366756C6C7900000023
:102870005761726E696E673A205052455F4F502023
:102880006661696C65642C2073746174653D307891
:102890002530345800000000414C204572726F72A0
:1028A00020436F64653A20307825303458000000AA
:1028B000566572696679696E67204D61696C626FF1
:1028C000782028534D302F534D312920636F6E6689
:1028D000696775726174696F6E2E2E2E000000009C
:1028E000941A01202020534D3020284D426F784FFC
:1028F00075742920454550524F4D3A2025303258A5
:1029000020253032582025303258202530325820AA
:102910002530325820253032582025303258202595
:10292000303258002020534D3120284D426F7849D5
:102930006E2920454550524F4D3A202025303258BF
:10294000202530325820253032582025303258206A
:102950002530325820253032582025303258202555
:102960003032580020204D61696C626F78206672A9
:102970006F6D20454550524F4D3A20574F3D3078AE
:10298000253034582C204C3D25642C20524F3D30AE
:1029900078253034582C20524C3D2564000000002E
:1029A0002020534F454D206D62785F776F3D307822
:1029B000253034582C206D62785F6C3D25642C20C6
:1029C0006D62785F726F3D3078253034582C206D01
:1029D00062785F726C3D2564000000002020574142
:1029E000524E494E473A20534F454D206D61696C18
:1029F000626F78206E6F7420636F6E6669677572A0
:102A000065642C207573696E6720455349206465A1
:102A10006661756C74732E2E2E00000098CA000833
:102A200020205573696E6720454550524F4D205305
:102A30004D302F534D3120636F6E6669677572613B
:102A400074696F6E2E2E2E0000108000260001008B
:102A50002020534D3020636F6E66696720283078E0
:102A60003236293A20776B633D2564008010800060
:102A7000220001002020534D3120636F6E6669678C
:102A8000202830783232293A20776B633D25640064
:102A900040F60802CDE90010FE481E9907F083FDBC
:102AA0009DF838009DF8391040EA01200B909DF800
:102AB0003A009DF83B1040EA01200A909DF83C0046
:102AC00009909DF83E100998CDE90001F24948A807
:102AD000DDE90A3206F022FE48A806F09DFC479880
:102AE000C0EBC00101EB8011EC4800EB81000E99B6
:102AF00040F8391F0F9941604798C0EBC00101EBC6
:102B00008010E64901EB800039300C9981600D9905
:102B1000C1604798401C4790E1494798096888423E
:102B20007FF7CFACDFA006F077FC01204790C9E02B
:102B30004798C0EBC00101EB8010D84901EB800041
:102B400080881E904FF440701D9044F620601DA9AF
:102B500002234FF41862CDE90010CE481E9907F009
:102B60002DFD1C90BDF87420D9A148A81C9B06F02F
:102B7000D5FD48A806F050FCE2A006F04DFC002070
:102B80001B9044F620601BA9012340F68112CDE979
:102B90000010C0481E9907F011FD002218921992EA
:102BA00044F6206018A908234FF41162CDE9001003
:102BB000B8481E9907F0F7FC1790179800280FDD0A
:102BC000DDE9180109F026FBCDE91801D9A148A8D3
:102BD000DDE9182306F0A2FD48A806F01DFC05E07B
:102BE000DBA006F019FC002018901990E34816901D
:102BF00044F6206016A904234FF41A62CDE90010B0
:102C0000A4481E9907F0DAFCDD4ADDE9183099186E
:102C100040F10000DB4BC91840F10002CDE914126D
:102C200044F6206114A808234FF41962CDE900018D
:102C300098481E9907F0C2FCD3480090D3A148A839
:102C4000DDE9142306F06AFD48A806F0E5FB032041
:102C50001B9044F620601BA9012340F68112CDE9A8
:102C600000108C481E9907F0A9FC01214798C0EB81
:102C7000C00202EB8010894A02EB800080F8F0105D
:102C8000BE494798C0EBC00202EB8010834A02EBBA
:102C90008000C0F8E81049104798C0EBC00202EB72
:102CA00080107E4A02EB8000C0F8EC100123022263
:102CB000C1A148A806F032FD48A806F0ADFB479830
:102CC000401C479076494798096888427FF730AFA3
:102CD0000120C4490875C882C3A006F09DFBCCA0A2
:102CE00006F09AFB00201E900BE007F02BFC4FF43F
:102CF000FA6007F01BFC022001F08AFD1E98401CC0
:102D00001E901E981E28F0DBCAA006F085FB32201C
:102D100001F07EFDCDA006F07FFBDBA006F07CFB82
:102D2000E6A006F079FBF3A006F076FB01204790C1
:102D300065E00C214798C0EBC00202EB8010574AB7
:102D400002EB800080F84B1000214798C0EBC002D6
:102D500002EB8010514A02EB800080F84C101221E7
:102D60004798C0EBC00202EB80104C4A02EB800097
:102D700080F8531000214798C0EBC00202EB80108E
:102D8000464A02EB800080F854104798C0EBC0011F
:102D900001EB8010114601EB800090F8531047982A
:102DA000C0EBC00202EB80103C4A02EB800090F8BE
:102DB000540041EA002000904798C0EBC00101EBAD
:102DC0008011104600EB810090F84B104798C0EB43
:102DD000C00202EB8010314A02EB800090F84C00F8
:102DE00041EA002003461E90CC4948A8479A06F0C5
:102DF00095FC48A806F010FB4798401C47902849CE
:102E000047980968884294DDC5A006F005FBCFA06D
:102E100006F002FBD9A006F0FFFAE8A006F0FCFAE3
:102E20000C211E4880F86711002180F868110321E9
:102E300080F84F11122180F86F11002180F8701175
:102E4000042180F85011E8A006F0E6FAF4A006F09C
:102E5000E3FA012047903DE24798C0EBC00101EB47
:102E600080100E4901EB800080881E90F8A105C9F2
:102E7000CDE91C0244F620601CA908234FF401622E
:102E8000CDE9001003481E9907F098FB1B90F2490A
:102E900048A8E3E1941A012088C9000820180020FE
:102EA00010C00120456E61626C696E67204443204A
:102EB00073796E63202844432D53796E6368726F73
:102EC0006E6F7573206D6F6465292E2E2E000000C5
:102ED000202041737369676E41637469766174651C
:102EE0002073657420746F20307825303458202882
:102EF00044432D53796E632C20776B633D25642901
:102F0000000000002020436F6E6669677572696E6D
:102F1000672053594E4330207769746820636F727D
:102F2000726563742044432074696D696E672E2E48
:102F30002E000000202043757272656E7420444399
:102F40002074696D653A20256C6C75206E730000E5
:102F500020205761726E696E673A20436F756C640A
:102F6000206E6F7420726561642044432074696D23
:102F7000652C207573696E672030000080841E0008
:102F800040420F0080969800C0D8A70020205359D7
:102F90004E43302073746172742074696D653A20F9
:102FA000256C6C75206E73202844432B256C6C7542
:102FB000206E732900000000202053594E4330201A
:102FC0006163746976617465643A206379636C65E2
:102FD0003D2564206D732C2073686966743D2564FB
:102FE000206D730000F60020202044432073796E8A
:102FF0006320656E61626C6564202844432D5379BB
:103000006E6368726F6E6F7573206D6F64652900F3
:10301000202057616974696E6720666F722053596A
:103020004E433020746F2073746162696C697A65F5
:103030002E2E2E00202044432F53594E4330207310
:10304000796E6368726F6E697A656400536B69703C
:1030500070696E672053444F20636F6D6D756E69A4
:10306000636174696F6E20284B6169736572447285
:1030700069766520636F6D7061746962696C6974EB
:1030800079292E2E2E00000020204E6F74653A20E4
:1030900053444F2077696C6C20626520636F6E66C5
:1030A000696775726564206D616E75616C6C7920FD
:1030B0006C696B652049474800000000202053657B
:1030C0007474696E672064656661756C74206F70D6
:1030D00065726174696F6E206D6F646520746F2016
:1030E0004353562028392920696E20736F66747700
:1030F00061726500436F6E6669677572696E6720FD
:1031000050444F206D617070696E672028494748B0
:103110002D7374796C65292E2E2E0000E0CA0008EC
:1031200050444F20636F6E66696775726174696F92
:103130006E20636F6D706C657465202853444F2D4D
:103140006C657373206D6F6465290000536B697043
:1031500070696E672053444F20636F6E66696775B0
:10316000726174696F6E20287573696E67205044B0
:103170004F2064656661756C747329005573696EC0
:10318000672064656661756C742050444F204173FC
:103190007369676E6D656E742066726F6D2045533E
:1031A000493A2030783136303120285278292C2085
:1031B00030783141303120285478290053657474B7
:1031C000696E672064656661756C742050444F2099
:1031D00041737369676E6D656E74206D616E7561A4
:1031E0006C6C792E2E2E000044656661756C74201F
:1031F00050444F2041737369676E6D656E74207320
:1032000065743A2030783136303120285278292CB4
:1032100020307831413031202854782900000000D6
:10322000436F6E6669677572696E6720534D322F02
:10323000534D3320666F722050444F20636F6D6D85
:10324000756E69636174696F6E2E2E2E000000002A
:1032500000110C006400010154CA00081B9A06F01A
:103260005DFA48A806F0D8F8EAA105C9CDE9190227
:1032700044F6206019A9082340F61802CDE9001091
:10328000E6481E9907F09AF91890E54948A8189A57
:1032900006F044FA48A806F0BFF84798C0EBC00112
:1032A00001EB8010DF4901EB800039301C9901618E
:1032B0001D9941614798C0EBC00101EB8010D949CD
:1032C00001EB80003930199981611A99C1614798E1
:1032D000401C4790D4494798096888427FF7BCADA5
:1032E000D2A006F099F80021DE4807F0FBF83A90EA
:1032F000DDA148A83A9A06F011FA48A806F08CF821
:10330000E248C0681E90E14840681D900246E0A176
:1033100048A81E9B06F002FA48A806F07DF8D1489E
:103320000090DA4800691E90D84880681D900246D7
:10333000DFA148A81E9B06F0F1F948A806F06CF83A
:10334000D2480069C749401A1E90D0488068401A88
:103350001D900246E1A148A81E9B06F0DFF948A88F
:1033600006F05AF8C948406810B1C848C068E8B9C2
:10337000E6A006F051F80C20C44948601220C8604D
:103380000C21A848C0F838111221C0F84411BF48D8
:10339000C0681E90BD4840681D900246EBA148A839
:1033A0001E9B06F0BBF948A806F036F8F1A006F01F
:1033B00033F8FE4806F030F8FDA006F02DF80120A5
:1033C00047904FE003214798C0EBC00202EB80100A
:1033D000944A02EB800080F8331004214798C0EB38
:1033E000C00202EB80128F4800EB820080F834109C
:1033F0000C214798C0EBC00202EB8010894A02EB17
:10340000800080F84B1000214798C0EBC00202EB0F
:103410008010844A02EB800080F84C1012214798FB
:10342000C0EBC00202EB80107E4A02EB800080F805
:10343000531000214798C0EBC00202EB8010794A7C
:1034400002EB800080F8541012200C230090E8A1B9
:1034500048A8479A06F062F948A805F0DDFF4798AA
:10346000401C47907049479809688842AADDEE4899
:1034700005F0D2FFEDA005F0CFFF0020399001202C
:10348000479022E04798C0EBC00101EB80106549EE
:1034900001EB800080881E9044F6206039A9022349
:1034A0004FF49A72CDE900105C481E9907F086F837
:1034B0001D90E7A148A81D9B479A06F02FF948A840
:1034C00005F0AAFF4798401C47905749479809685C
:1034D0008842D7DD322001F09BF9E9A005F09CFF7E
:1034E000F4A005F099FF6948C08A1E906748007DE6
:1034F0001D900246F8A148A81E9B06F00FF948A8A7
:1035000005F08AFFFBA005F087FF042145480180F4
:10351000002007F021F8C820389000BF07F000F81D
:10352000012001F075F93898411E389120B13D48CD
:10353000B0F81C010428F1D13A48B0F81C01042865
:103540000CD03848B0F81C010246F1A11E9048A8E2
:1035500006F0E4F848A805F05FFF02E0F6A005F0E9
:103560005BFFFBA005F058FF44F6206136A8CDE9CB
:1035700000012C48B0F8200108234FF401620146F5
:103580001E90264807F00FF8339044F6206034A9C7
:10359000CDE900102348B0F82001082340F61802B6
:1035A00001461E901D4806F0FEFF32909DF8DF1088
:1035B0009DF8DE209DF8DD303398CDE90332CDE96A
:1035C00005109DF8DC009DF8DB109DF8DA20CDE9B0
:1035D000002102909DF8D9001E909DF8D8001D9002
:1035E0000246E3A148A81E9B06F098F848A805F0FB
:1035F00013FF9DF8D7209DF8D6109DF8D53032984E
:10360000CDE90331CDE905209DF8D4109DF8D30014
:10361000CAE10000001D120020000101941A0120DF
:1036200010CA00082018002010C0012043616C6CF3
:10363000696E672065635F636F6E6669675F6D6162
:10364000705F67726F75702028776974682066698B
:1036500078656420464D4D552054797065292E2E8D
:103660002E00000058F80020202065635F636F6E15
:103670006669675F6D61705F67726F7570207265F4
:103680007475726E65643A202564000000F60020AF
:10369000202047726F7570204F62797465733D25E5
:1036A000642C204962797465733D25640000000034
:1036B000202044454255473A206F757470757473E5
:1036C0003D25702C20696E707574733D25702C201B
:1036D000494F6D61703D2570000000002020444579
:1036E0004255473A206F757470757473206F666623
:1036F0007365743D25642C20696E70757473206F3A
:1037000066667365743D2564000000002020455204
:10371000524F523A2050444F206D617070696E676D
:10372000206661696C65642C206D616E75616C6CDE
:10373000792073657474696E67204F62797465735C
:103740002F496279746573210000000020204D61CB
:103750006E75616C6C79207365743A204F62797470
:1037600065733D25642C204962797465733D256439
:1037700000000000536B697070696E672053444FFE
:103780002050444F2041737369676E6D656E7420DD
:10379000284D61696C626F78206E6F74207265735A
:1037A000706F6E64696E672900000000E8C700084A
:1037B0004D616E75616C6C7920636F6E66696775BB
:1037C00072696E672050444F2041737369676E6D54
:1037D000656E7420696E2065635F736C6176652029
:1037E0007374727563747572652E2E2E000000005E
:1037F0002020536C6176652025643A20534D323D7C
:103800006F7574707574732825642062797465739C
:10381000292C20534D333D696E70757473282564CF
:103820002062797465732900A4C70008436C656140
:1038300072696E6720414C204572726F7220436F2F
:1038400064652072656769737465722E2E2E0000A0
:103850002020414C204572726F7220436F646520B6
:10386000636C656172656420666F7220736C61764B
:10387000652025642028776B633D256429000000BE
:10388000534D3220636F6E66696775726174696F3C
:103890006E3A2030783634202845534920646566D6
:1038A00061756C7420666F72204F757470757473D7
:1038B00029000000566572696679696E6720444385
:1038C0002073796E6320636F6E66696775726174C9
:1038D000696F6E2E2E2E00002020444320686173F5
:1038E00064633D25642C2044436E6578743D2564F3
:1038F0000000000052657175657374696E6720532E
:103900004146455F4F502073746174652E2E2E0022
:103910005761726E696E673A20534146455F4F505A
:10392000206661696C65642C2073746174653D3038
:103930007825303458000000534146455F4F5020F1
:10394000737461746520726561636865640000006A
:10395000436865636B696E6720534D20636F6E66C5
:10396000696775726174696F6E2E2E2E00000000FB
:10397000534D323A202530325820253032582025F8
:10398000303258202530325820253032582025300A
:103990003258202530325820253032582028776B75
:1039A000633D2564290000009DF8D220CDE9002068
:1039B00002919DF8D1001E909DF8D0001D90024606
:1039C000D1A148A81E9B05F0A9FE48A805F024FD3A
:1039D0009DF8DE0000F0010010BBD9A005F01CFD31
:1039E0009DF8DE0040F001008DF8DE0044F6206115
:1039F00036A8CDE90001DF48B0F8200108234FF4D4
:103A0000016201461D90DC4806F0D8FD1E90DBA146
:103A100048A81E9A05F082FE48A805F0FDFC00BFEC
:103A20009DF8D60000F0010010BBDAA005F0F4FC10
:103A30009DF8D60040F001008DF8D60044F62060D5
:103A400034A9CDE90010CB48B0F82001082340F696
:103A5000180201461D90C84806F0B0FD1E90DAA17C
:103A600048A81E9A05F05AFE48A805F0D5FC00BFEC
:103A70000020319044F6206031A9CDE90010BD4806
:103A8000B0F8200102234FF4987201461E90BA4804
:103A900006F089FD3090BDF8C40008F0BCFB1E9014
:103AA000B448B0F81E010090CDA148A8309B1E9AE2
:103AB00005F034FE48A805F0AFFCD5A005F0ACFC3D
:103AC000E1A005F0A9FC0020ED4908600221ED48C5
:103AD00001600620EC4908600A21EC4801600020E2
:103AE000EB4908600221EB4801600620EA490860C2
:103AF0000A21EA4801601021E9480160E3480068B2
:103B0000E1490968CDE90010DE480368DC48026835
:103B1000E4A148A805F002FE48A805F07DFCEDA050
:103B200005F07AFCF5A005F077FC4FF48051FE48D3
:103B3000FCF792FB00201E900EE006F003FD012032
:103B400000F066FE4FF4FA6006F0F0FC012000F091
:103B50005FFE1E98401C1E901E980A28EDDBF3A005
:103B600005F05AFCF8A005F057FC082081490880B0
:103B7000002006F0F1FCC8202F900020FA490870C0
:103B800000BF06F0CDFC012000F042FE7948B0F8FD
:103B90001C01082802D10120F34908702F98411E0A
:103BA0002F9118B1F04800780028EAD0EFA005F076
:103BB00033FC44F620612DA8CDE900016D48B0F832
:103BC000200108234FF4016201461E906A4806F066
:103BD000EAFC44F620602BA9CDE900106548B0F856
:103BE0002001082340F6180201461E90624806F0A4
:103BF000DAFC9DF8BB209DF8BA109DF8B9009DF83D
:103C0000B830CDE90230CDE904129DF8B7009DF837
:103C1000B610CDE900109DF8B5001E909DF8B400D7
:103C20001D900246DDA148A81E9B05F077FD48A81F
:103C300005F0F2FB9DF8B3209DF8B2009DF8B1109D
:103C40009DF8B030CDE90231CDE904029DF8AF0016
:103C50009DF8AE10CDE900109DF8AD001E909DF8C6
:103C6000AC001D900246D9A148A81E9B05F056FD48
:103C700048A805F0D1FBE1A005F0CEFB44F620609A
:103C800027A9CDE900103B48B0F8200110234FF4DC
:103C9000C06201461E90384806F085FC44F620605C
:103CA00023A9CDE900103348B0F8200110234FF4C8
:103CB000C26201461E90304806F075FC44F6206052
:103CC0001FA9CDE900102B48B0F8200110234FF4B4
:103CD000C46201461E90284806F065FC9DF8A800C5
:103CE0009DF8A7209DF8A0109DF8A130CDE90231E4
:103CF000CDE904209DF89C009DF89D10CDE90010B1
:103D00009DF89E001E9089E1534D333A20253032B4
:103D1000582025303258202530325820253032584E
:103D20002025303258202530325820253032582076
:103D3000253032582028776B633D25642900000028
:103D40005741524E494E473A20534D3220416374F9
:103D5000206269742069732064697361626C6564B0
:103D60002C2072652D656E61626C696E672E2E2E39
:103D70000000000020180020941A0120534D32202A
:103D800072652D656E61626C65642028776B633D9A
:103D9000256429005741524E494E473A20534D332E
:103DA00020416374206269742069732064697361BF
:103DB000626C65642C2072652D656E61626C696E43
:103DC000672E2E2E00000000534D332072652D65A6
:103DD0006E61626C65642028776B633D2564290001
:103DE000414C205374617475733A20307825303417
:103DF000582028776B633D2564292C204572726F0B
:103E000072436F64653A20307825303458000000E2
:103E1000536B697070696E672053444F20696E2040
:103E2000534146455F4F5020737461746520284D9F
:103E300061696C626F78206E6F7420726573706F49
:103E40006E64696E672900005573696E672064654A
:103E50006661756C742050444F2041737369676EBE
:103E60006D656E743A2030783136303120285278C2
:103E7000292C203078314130312028547829000015
:103E800050C0012054C0012058C001205CC0012056
:103E900060C0012064C0012068C001206CC0012006
:103EA00070C0012050444F206F6666736574733A8A
:103EB000206374726C3D25642C20706F733D256403
:103EC0002C2076656C3D25642C20746F723D256432
:103ED00000000000507265706172696E6720666F45
:103EE00072204F5045524154494F4E414C207472FC
:103EF000616E736974696F6E2E2E2E0020205365DB
:103F00006E64696E6720696E697469616C20707295
:103F10006F636573732064617461206672616D659F
:103F2000732E2E2E0000000058F800202020496E2D
:103F3000697469616C2070726F636573732064616A
:103F400074612073656E7400526571756573746970
:103F50006E67204F5045524154494F4E414C20739B
:103F6000746174652E2E2E0024C0012052652D63CD
:103F70006865636B696E6720534D204163742062EE
:103F8000697473206166746572204F502074726189
:103F90006E736974696F6E2E2E2E00002020534DB3
:103FA000323A202530325820253032582025303200
:103FB00058202530325820253032582025303258AC
:103FC0002025303258202530325800002020534D13
:103FD000333A2025303258202530325820253032CF
:103FE000582025303258202530325820253032587C
:103FF0002025303258202530325800004368656350
:104000006B696E6720464D4D5520636F6E6669671C
:1040100075726174696F6E2E2E2E00009DF89F00E0
:104020001D900246AA4948A81E9B05F077FB48A8A8
:1040300005F0F2F99DF8A3009DF8A610CDE9001057
:104040009DF8A4001E909DF8A5001D900246A1A118
:1040500048A81E9B05F062FB48A805F0DDF99DF815
:1040600098009DF897209DF890109DF89130CDE92B
:104070000231CDE904209DF88C009DF88D10CDE92A
:1040800000109DF88E001E909DF88F001D90024636
:104090009E4948A81E9B05F041FB48A805F0BCF9C5
:1040A0009DF893009DF89610CDE900109DF89400BE
:1040B0001E909DF895001D90024695A148A81E9B54
:1040C00005F02CFB48A805F0A7F99DF888009DF89D
:1040D00087109DF880209DF88130CDE90232CDE92E
:1040E00004109DF87C009DF87D10CDE900109DF82E
:1040F0007E001E909DF87F001D900246924948A8C0
:104100001E9B05F00BFB48A805F086F99DF883007F
:104110009DF88610CDE900109DF884001E909DF852
:1041200085001D90024689A148A81E9B05F0F6FA5D
:1041300048A805F071F99DF8880028BB91A005F00A
:104140006BF9A0A0D0E90043D0E90212CDE91B43EE
:10415000CDE91D1244F620601BA9CDE900109D4851
:10416000B0F8200110234FF4C462014619909A4818
:1041700006F024FA1A9099A148A81A9A05F0CEFAE6
:1041800048A805F049F900BF9DF8BA0000F0010009
:10419000C0B99CA005F040F99DF8BA0040F00100BC
:1041A0008DF8BA0044F620612DA8CDE900018948B8
:1041B000B0F8200108234FF4016201461E908648A2
:1041C00006F0FCF99DF8B20000F00100C0B999A01A
:1041D00005F022F99DF8B20040F001008DF8B20020
:1041E00044F620602BA9CDE900107A48B0F82001F0
:1041F000082340F6180201461E90774806F0DEF9C3
:1042000098480078002831D097A005F005F99DA0C6
:1042100005F002F9642000F0FBFA00201E90012056
:104220001D9044F620601EA91DAA0023CDE900328E
:10423000CDE9021041F6124201219F4806F0DEF955
:104240001C909DF878309DA148A81C9A05F066FA4C
:1042500048A805F0E1F81C98002803DDA4A005F0AB
:10426000DBF802E0ABA005F0D7F80EE05948B0F853
:104270001C010246B0A11E9048A805F04FFA48A8BC
:1042800005F0CAF8B9A005F0C7F8C3A005F0C4F856
:10429000CEA005F0C1F80121DC480170DC480170B6
:1042A0000020DC490860DCA005F0B6F86D48007815
:1042B00020B94848B0F81C01042803D1DFA005F05C
:1042C000ABF802E0E9A005F0A7F80020FDF788BBF5
:1042D000BCC800082020464D4D55303A2050687922
:1042E00073416464723D2530325825303258205372
:1042F000746172744269743D2530325820456E6491
:104300004269743D253032580000000000C90008A1
:104310002020464D4D55313A2050687973416464F0
:10432000723D2530325825303258205374617274F2
:104330004269743D2530325820456E644269743DAF
:10434000253032580000000044C900082020464DA6
:104350004D55323A2050687973416464723D25307E
:104360003258253032582053746172744269743D5A
:104370002530325820456E644269743D25303258EC
:10438000000000002020435249544943414C3A2048
:10439000464D4D5532206E6F7420636F6E666967AF
:1043A000757265642C20636F6E6669677572696EDD
:1043B0006720666F72204D426F7853746174652E6A
:1043C0002E2E00001000000001000303050800016C
:1043D0000100000020180020941A01202020464DE2
:1043E0004D553220636F6E6669677572656420286B
:1043F0004D426F785374617465293A20776B633D41
:104400002564000020205741524E494E473A205320
:104410004D32204163742062697420646973616263
:104420006C65642C2072652D656E61626C696E67C7
:104430002E2E2E0020205741524E494E473A2053EF
:104440004D33204163742062697420646973616232
:104450006C65642C2072652D656E61626C696E6797
:104460002E2E2E0024C001204F5045524154494F5A
:104470004E414C2073746174652072656163686598
:104480006421000054657374696E672053444F20A3
:10449000636F6D6D756E69636174696F6E20696EAF
:1044A000204F5045524154494F4E414C2073746146
:1044B00074652E2E2E000000580801202020534441
:1044C0004F2072656164203078314331323A3020B8
:1044D00028527850444F20636F756E74293A2077C4
:1044E0006B633D25642C2076616C75653D25640009
:1044F000202053444F20696E204F5045524154496B
:104500004F4E414C20737461746520574F524B538A
:1045100021000000202053444F20696E204F504559
:10452000524154494F4E414C20737461746520666A
:1045300061696C65640000005761726E696E673A6C
:10454000204F5045524154494F4E414C2074696DA3
:10455000656F75742C20736C61766520737461745B
:10456000653D307825303458000000005573696E81
:104570006720534146455F4F5020666F7220436964
:1045800041343032207374617465206D61636869F1
:104590006E652E2E2E00000050444F20417373692B
:1045A000676E6D656E743A205573696E672045536A
:1045B000492064656661756C7473202830783136E3
:1045C00030312F30783141303129000020204E6FBA
:1045D00074653A2050444F2041737369676E6D656E
:1045E0006E7420697320696E20436F45206F626A84
:1045F0006563742064696374696F6E6172792028E1
:1046000053444F206F6E6C792900000023C00120B5
:1046100044C0012048C0012045746865724341547C
:1046200020696E697469616C697A6174696F6E2062
:10463000636F6D706C6574652100000050444F20FD
:10464000636F6D6D756E69636174696F6E207265FD
:10465000616479202877616974696E6720666F727A
:1046600020574B43203E2030290000005741524E36
:10467000494E473A20536C617665206E6F7420690D
:104680006E204F5045524154494F4E414C206F725D
:1046900020534146455F4F5020737461746521007B
:1046A0000146082915D2DFE801F00406080A0C0EBD
:1046B000101209A070470BA0FCE70FA0FAE713A0A7
:1046C000F8E715A0F6E719A0F4E71BA0F2E71EA093
:1046D000F0E71FA0EEE700004E6F742052656164A2
:1046E00079000000537769746368204F6E20446935
:1046F0007361626C65640000526561647920746F57
:1047000020537769746368204F6E00005377697493
:1047100063686564204F6E004F7065726174696FE5
:104720006E20456E61626C656400000051756963BE
:104730006B2053746F7000004661756C7420526575
:10474000616374696F6E00004661756C74000000EF
:10475000556E6B6E6F776E002DE9F0410446876DE4
:1047600000F0A6FC064694F835000025022806D085
:104770008020606584F834500120BDE8F081206815
:10478000016821F0160101602068416921F0800173
:104790004161206C08B9A06C20B12068016821F04B
:1047A000080101602068016821F0010101600CE04E
:1047B00000F07EFC801B052807D9202060650320BF
:1047C00084F8350084F83450D7E720680068C007C3
:1047D000EED194F85C103F208840B860012084F846
:1047E000350084F834500020C7E790F835100229CE
:1047F00003D08021416501207047052180F83510E4
:104800000068016821F0010101600020704700008C
:1048100070B5044600F04CFC0546601C02D004480C
:104820000078044400F044FC401BA042FAD370BD61
:10483000E4C001207047B9B30268526802F0010277
:104840000A7002685268C2F34002CA700268526875
:10485000C2F380020A7102685268C2F3C0020A728F
:1048600002685268C2F300124A7102685268C2F3C9
:1048700040124A720268526802F0C002CA600268BE
:104880005268C2F30022CA7102685268C2F3402221
:104890008A7102685268C2F380228A700068406898
:1048A000C00F487000207047FFE70120FBE70000C1
:1048B0002DE9F0470446006850F8387FD0F8DC5FF7
:1048C000D0F8E46FDFF8B490D9F8008000F6C87033
:1048D000690606D5710604D529494161204600F0D4
:1048E000AFF905EA0600C00708D020684FF00111B3
:1048F00000F580504161204600F0A1FA280423D53C
:10490000300421D5D4F8880040F00800C4F88800AD
:10491000A804206800F580500CD54169194A11405F
:10492000C4F88C10C16921F4C031C161E020C4F821
:10493000840006E0426948F280610A40C4F88C2095
:1049400041612046FFF776FF38070BD52068C06A23
:1049500000F06000C4F89400204600F023F9002025
:10496000C4F894005FEA083006D54FF40021C9F876
:104970000010204600F064FABDE8F087143C0140C6
:104980004000010000207E00F8B5040003D0D4F8F8
:10499000840010B107E00120F8BD2020C4F8840095
:1049A000204600F093F845480025016841F4804115
:1049B0000160006800F4804000904148016821F4E3
:1049C000000101600168A26811430160006820686D
:1049D00000F58050016841F00101016000F068FBC2
:1049E00006464FF4FA770BE000F062FB801BB842FA
:1049F00006D90420C4F88800E020C4F88400CAE77F
:104A0000206800F580500068C007EDD12046FCF713
:104A100053FB0021E06801EB810200EBC20005605E
:104A200045608560C56004EB81039861036843F4C9
:104A300080130360032905D22826E36806EBC2022F
:104A40001A4400E0E268C260026842F44002026078
:104A5000491C0429DED3A5622068E16800F5805076
:104A600001612046FCF7CEFA6068164A818811641D
:104A70000178C37841EA0361837840781B0443EAF4
:104A80000020014351642068C16B41F40271C1638D
:104A90002068D0F80C110C4A1143C0F80C112068A2
:104AA000D0F8101141F40311C0F81011C4F8885067
:104AB0001020C4F884000020F8BD000044380240F3
:104AC000043801400080024060000200F0B587B069
:104AD000044614216846FBF7BFFB2D492068884235
:104AE00053D12C480024016841F000710160016835
:104AF00001F000710591016841F080610160016879
:104B000001F080610591016841F000610160016878
:104B100001F000610591016841F004010160016844
:104B200001F004010591016841F001010160016893
:104B300001F001010591016841F002010160006886
:104B4000022500F0020005903220CDE9000502AAFE
:104B500003260B2782E8D00069460F4800F09EF933
:104B60008620CDE9000502AA694682E8D0000B48FC
:104B700000F094F94FF46050CDE9000502AA6946AF
:104B800082E8D000064800F089F907B0F0BD0000C7
:104B9000008002403038024000080240000002401D
:104BA00000040240704700002DE9F0419846036878
:104BB0000546186900F01C044FF6FF7000EAC1209A
:104BC0004FF4F861204301EA8211014321F0020011
:104BD00040F001041C6100F06BFA06464FF4803788
:104BE0000AE000BF00F064FA801BB84202D3012043
:104BF000BDE8F08128680469E007F3D128684069BE
:104C000081B20020C8F80010F2E719B1C0F8A01076
:104C1000002070470120704707494A68C2EB8213A1
:104C200003EBC212054B03EBC20202604868401C52
:104C300000F0030048607047D0C00120DCC20120B2
:104C40000121014A117070470CC0012070B5044663
:104C500079B30878CA780B7A40EA42000A79920060
:104C600042EAC30210434A7940EA02104A7A012A12
:104C700000D0002240EA4210CA7940EA02208A7934
:104C800040EA42208A7840EA82204A78C96840EAAD
:104C9000C270084321684A68074B1A4002434A60C1
:104CA000206845680120FFF7B3FD206845600020BB
:104CB00070BDFFE70120FBE700F8FF7F70B50446F9
:104CC000D0F88400102801D0012070BD2020C4F845
:104CD00084000420E0662046FCF71EFB2068016883
:104CE00041F008010160206805680120FFF790FD90
:104CF000206805602068016841F0040101602068B7
:104D000005680120FFF784FD206805602046FCF758
:104D1000AEF9206800F58050816941F4005181614D
:104D2000206800F58050816941F0020181614020D6
:104D3000C4F88400002070BD70B50446D0F884002B
:104D4000102801D0012070BD2020C4F8840001206B
:104D5000A0650420E0662046FCF7DEFA20680568BE
:104D60000120FFF755FD20680560206800F58050A0
:104D7000816941F400518161206800F580508169AA
:104D800041F0020181612046FCF771F92068016859
:104D900041F008010160206805680120FFF738FD37
:104DA000206805602068016841F004010160206806
:104DB00000F58050C169044A1143C1614020C4F824
:104DC0008400002070BD0000C1A0010070B5044641
:104DD000D0F88400402801D0012070BD2020C4F804
:104DE0008400206800F58050816921F400518161C0
:104DF000206800F58050816921F0020181612068FE
:104E0000016821F004010160206805680120FFF7B6
:104E1000FFFC206805602046FCF729F9206801683E
:104E200021F008010160206805680120FFF7F0FC0F
:104E3000206805601020C4F88400002070BD704711
:104E4000704700002DE9F04106680546306900F022
:104E50001C044FF6FF7000EAC1204FF4F8612043B4
:104E600001EA8211014398B241F00304706128689D
:104E7000046100F01DF906464FF480370AE000BFD8
:104E800000F016F9801BB84202D30120BDE8F08182
:104E900028680469E007F3D1F8E700002DE9F84F2E
:104EA000DFF8BCA10022012503264FF00F090AF10B
:104EB000040BAAF1040E00BF0B6805FA02F42340AC
:104EC000A34270D10F7907F00307012F01D0022F01
:104ED00016D187684FEA420806FA08FC27EA0C0751
:104EE000D1F80CC00CFA08FC4CEA070CC0F808C05A
:104EF0004768A7430C79C4F3001494403C434460D2
:104F00000C79E443A4070AD0C4684FEA420C06FABD
:104F10000CF7BC438F6807FA0CF72743C7600C797E
:104F200004F00304022C12D1D40800EB840CDCF84A
:104F300020405707FF0E09FA07F824EA0804D1F8C1
:104F4000108008FA07F848EA0408CCF820800468C2
:104F50004FEA420C06FA0CF7BC430F7907F003073F
:104F600007FA0CF7274307604C6814F4403F70D0F1
:104F70003C4C276847F480472760246822F00307E9
:104F800004F480440094384C07EB040CDCF8084827
:104F900097074FEA177809FA08F7BC43334FB8422E
:104FA00002D1002724E054E0314FB84201D101275B
:104FB0001EE0304FB84201D1022719E02E4FB8420F
:104FC00001D1032714E02D4FB84201D104270FE08F
:104FD0002B4FB84201D105270AE02A4FB84201D130
:104FE000062705E0284FB84201D1072700E008272F
:104FF00007FA08F72743CCF80878DAF80040574654
:10500000D1F804C09C435FEACC2C00D51C433C6023
:10501000DBF800405F46D1F804C09C435FEA8C2C6B
:1050200000D51C433C60DEF800407746D1F804C050
:105030009C435FEA8C3C00D51C433C60084F083F12
:105040003C68D1F804C09C435FEACC3C00D51C43CB
:105050003C60521C102AFFF42FAFBDE8F88F00000F
:10506000083C01404438024000300140000002404A
:105070000004024000080240000C02400010024000
:105080000014024000180240001C02400069084061
:1050900000D001207047426921EA02030A4043EA36
:1050A0000241816170470AB1816170470904FBE7E1
:1050B0000148806870470000E4C001200248816810
:1050C0000278114481607047E4C001200B4810B59C
:1050D000016841F400710160016841F48061016080
:1050E000016841F480710160032000F07FF80F2017
:1050F00000F006F800F024F8002010BD003C02404B
:1051000070B50D4D04464FF47A712878B1FBF0F07C
:105110000A490968B1FBF0F000F01AFB48B9102CFD
:1051200007D200222146501E00F040F800206C609B
:1051300070BD012070BD0000E4C00120F0C001205E
:105140000A4808B5016841F480410160006800F434
:10515000804000900548001F016841F080510160C7
:10516000006800F08050009008BD00004438024004
:1051700000280DDB00F01F02012191404009800052
:1051800000F1E020C0F88011BFF34F8FBFF36F8FA5
:105190007047002809DB00F01F02012191404009FF
:1051A000800000F1E020C0F800117047F0B40E4B11
:1051B0001B680C46C3F30223C3F10705042D00D975
:1051C0000425191D072901D2002300E0DB1E01265A
:1051D00006FA05F1491E214099409E40761E164070
:1051E0003143F0BC04F0AEBA0CED00E0064900F02B
:1051F000070208684FF6FF03184040EA0220034AFE
:1052000010430860704700000CED00E00000FA0554
:105210002DE9F0470E46050065D0DFF81481D8F877
:105220000000F7B200F00700B04207D288F8007023
:10523000D8F8000000F00700B04254D128683D4C77
:10524000810712D5400703D5206840F4E050206064
:105250002878000703D5206840F46040206020686B
:10526000A96820F0F000084320602878C0072DD0FE
:10527000304968680839012812D0022813D0032861
:1052800011D00968890700292DDA216821F003016E
:1052900001432160FFF70CFF814641F2883A0EE09E
:1052A00009688903EFE709688901ECE7FFF700FF68
:1052B000A0EB0901514502D90320BDE8F087206821
:1052C000696800F00C00B0EB810FEFD1D8F8001046
:1052D000404601F00701B14207D90770006800F0AD
:1052E0000700B04201D00120E7E72878400705D544
:1052F0002068E96820F4E05008432060287800071F
:1053000006D52068296920F4604040EAC100206089
:1053100000F038F82168084AC1F30311515CC84015
:105320000649086006480068FFF7EAFE0020C4E767
:10533000003C02400838024040C70008F0C001208D
:10534000E8C001200448054900680968044AC1F31F
:105350008221515CC8407047F0C0012008380240EB
:1053600050C700080448054900680968044AC1F3A9
:105370004231515CC8407047F0C0012008380240FB
:1053800050C70008154810B5006810F00C0214480A
:1053900013D04110042A0FD0082A0ED10F4C241F1D
:1053A0002268236802F03F025B0207D52068C0F341
:1053B0008810A0FB010106E0084610BD2168C1F37A
:1053C0008811A1FB00010023FAF7FCFE2168C1F35C
:1053D0000141491C4900B0FBF1F010BD0838024002
:1053E0000024F4002DE9F84F04006ED02078DFF897
:1053F0004C93C007A9F104054AD009F104000168E3
:10540000C1F38101012908D00068C0F3810002289E
:105410000AD1D9F80000400206D52868800337D5A4
:1054200060680028E1D033E06068B0F5803F10D0BC
:10543000B0F5A02F286810D020F4803028602868AC
:1054400020F4802028606068A8B1FFF731FE06468E
:105450000DE0286840F48030F4E740F480202860B4
:10546000F7E700BFFFF724FE801B642873D8286885
:105470008003F7D50CE0FFF71BFE064605E000BFF2
:10548000FFF716FE801B6428F0D828688003F7D445
:105490002078DFF8AC8280074FF0000A3ED5A7489D
:1054A000001D016811F00C0F08D00068C0F38100E6
:1054B00002280BD1D9F80000400207D428688007E1
:1054C00016D5E068012800D112E033E1E068B8B1F8
:1054D0000120C8F80000FFF7EBFD064605E000BF1D
:1054E000FFF7E6FD801B0228C0D828688007F7D5A3
:1054F0002868216920F0F80040EAC10028600DE02A
:10550000C8F800A0FFF7D4FD064604E0FFF7D0FD81
:10551000801B02281FD828688007F7D4207800074E
:1055200022D5864F87486169703771B101210160CA
:10553000FFF7BEFD064604E0FFF7BAFD801B022818
:1055400009D838688007F7D50EE0C0F800A0FFF74B
:10555000AFFD064605E082E0FFF7AAFD801B0228AA
:105560007DD838688007F7D42078400768D5DFF801
:10557000CCB100270BF13C0BDBF80000C0000BD4D2
:10558000DBF8001041F08051CBF80010DBF8000090
:10559000012700F0805000906B4E3068C00510D499
:1055A000306840F480703060FFF782FD009005E0C5
:1055B000FFF77EFD0099401A022850D83068C005D8
:1055C000F6D55E4EA0686C3601280FD005283068ED
:1055D00010D020F001003060306820F0040030600E
:1055E000A068B8B1FFF764FD00900FE0306840F0AC
:1055F0000100F4E740F004003060F7E7FFF758FDE2
:105600000099411A41F28830814266D8306880079B
:10561000F4D50EE0FFF74CFD009007E0FFF748FDE2
:105620000099411A41F28830814256D8306880078B
:10563000F4D42FB1DBF8001021F08051CBF800102A
:10564000A069C8B33D49091D0968C1F38101022958
:105650004AD00228504607D0C8F8600000E03CE07D
:10566000FFF726FD04463BE04746C8F86000FFF719
:105670001FFD064605E000BFFFF71AFD801B02284C
:105680002BD828688001F7D4D4E907010843A16A20
:105690002E4A490802EB0141626A41EA821108433D
:1056A00094F82C1040EA0161C9F800100120386616
:1056B000FFF7FEFC044606E03EE000BFFFF7F8FC03
:1056C000001B022809D828688001F7D534E000BF04
:1056D000FFF7EEFC001B022802D90320BDE8F88F7B
:1056E00028688001F4D427E00128F7D0D9F8000019
:1056F000E26900F4800191421CD1226A00F03F016E
:10570000914217D147F6C071626A0140B1EB821F26
:1057100010D1A26A4FF0FF3300F4403103EB520284
:10572000B1EB024F06D194F82C1000F07060B0EB92
:10573000016F01D00120D1E70020CFE704380240FB
:1057400000004742800E4742007000400000FFFF0B
:1057500010B5401EB0F1807F01D3012010BD4FF085
:10576000E02460610F21601703F0ECFF0020A061CE
:1057700007202061002010BD7047704770B590F879
:105780003C20012A32D0012480F83C40022280F8DB
:105790003D2003685A689D6822F070060A6832430B
:1057A0005A60134B02689A4214D0B2F1804F11D064
:1057B000104B9A420ED0104B9A420BD00F4B9A428C
:1057C00008D00F4B9A4205D00E4B9A4202D00E4B96
:1057D0009A4204D1496825F080031943916080F80A
:1057E0003D40002180F83C10084670BD022070BD8D
:1057F000000001400004004000080040000C004090
:1058000000040140004001400018004010B50400B1
:1058100003D094F83D0010B107E0012010BD002036
:1058200084F83C00204600F01FF8022084F83D0078
:10583000211D206803F014FC012084F8460084F840
:105840003E0084F83F0084F8400084F8410084F86A
:10585000420084F8430084F8440084F8450084F84A
:105860003D00002010BD000008B501681048B1F1EE
:10587000804F14D00F4A914219D1016841F00201C2
:1058800001600068002200F00200009011461D2017
:10589000FFF78CFCBDE808401D20FFF77ABC0168CB
:1058A00041F001010160006800F00100009008BDB6
:1058B000403802400004004090F83D10012901D01A
:1058C00001207047022180F83D100068114988428C
:1058D00014D0B0F1804F11D00F4988420ED00F493B
:1058E00088420BD00E49884208D00E49884205D024
:1058F0000D49884202D00D49884204D1816801F0E7
:105900000701062903D0016841F001010160002070
:105910007047000000000140000400400008004003
:10592000000C00400004014000400140001800400D
:1059300070B5044690F83C000025012817D00126D8
:1059400084F83C60022084F83D002068826822F0E0
:10595000770222F47F4282600868502838D00DDC3C
:1059600020284FD005DC90B3102811D14AE0022046
:1059700070BD302846D040280AD13BE060282FD0A7
:1059800070280DD0B0F5805F03D0B0F5005F12D065
:10599000012584F83D60002084F83C00284670BD55
:1059A000CB68D1E90121206803F0C2FB206881683F
:1059B00041F0770109E0CB68D1E90121206803F0CB
:1059C000B7FB2068816841F480418160E1E719E01C
:1059D000CA684968206803F0BDFB5021206806E0D2
:1059E000CA684968206803F0C6FB6021206803F09C
:1059F000A9FBCEE7CA684968206803F0ABFB4021E9
:105A00002068F4E7226801461046F0E770472DE968
:105A1000F04104460068C66805694FF00007A90711
:105A200013D5B10711D5F91E016101202077206837
:105A300080698007204602D0FFF7E8FF04E000F00D
:105A40007EF8204600F07CF82777680716D57007A7
:105A500014D521686FF004000861022020772068C7
:105A6000806910F4407F204602D0FFF7CFFF04E0AA
:105A700000F065F8204600F063F82777280715D571
:105A8000300713D521686FF00800086104202077E3
:105A90002068C0698007204602D0FFF7B7FF04E006
:105AA00000F04DF8204600F04BF82777E80616D5B1
:105AB000F00614D521686FF01000086108202077E7
:105AC0002068C06910F4407F204602D0FFF79EFF97
:105AD00004E000F034F8204600F032F82777E807B9
